:020000040800F2
:1000000000500020C124000811180008171800082B
:100010001D18000823180008291800080000000017
:100020000000000000000000000000002F18000881
:100030003B1800080000000047180008531800088B
:1000400009250008092500080925000809250008D8
:1000500009250008092500080925000809250008C8
:1000600009250008092500080925000809250008B8
:1000700009250008092500080925000809250008A8
:100080000925000809250008092500080925000898
:100090000925000809250008092500080925000888
:1000A0000925000809250008092500080925000878
:1000B0000925000809250008092500080925000868
:1000C0000925000809250008092500080925000858
:1000D0000925000809250008092500080925000848
:1000E000092500080925000809250008000000006E
:1000F0000000000000000000000000000000000000
:0C01000000000000000000005FF808F1A3
:1001100010B5054C237833B9044B13B10448AFF341
:1001200000800123237010BDDC01002000000000CE
:10013000C472000808B5034B1BB103490348AFF371
:10014000008008BD00000000E0010020C47200082B
:10015000034613F8012B002AFBD1181A0138704707
:1001600081F0004102E000BF83F0004330B54FEA68
:1001700041044FEA430594EA050F08BF90EA020FD5
:100180001FBF54EA000C55EA020C7FEA645C7FEA68
:10019000655C00F0E2804FEA5454D4EB5555B8BF8B
:1001A0006D420CDD2C4480EA020281EA030382EAFC
:1001B000000083EA010180EA020281EA0303362D8E
:1001C00088BF30BD11F0004F4FEA01314FF4801C61
:1001D0004CEA113102D0404261EB410113F0004F73
:1001E0004FEA03334CEA133302D0524263EB43032A
:1001F00094EA050F00F0A780A4F10104D5F1200EC8
:100200000DDB02FA0EFC22FA05F2801841F1000122
:1002100003FA0EF2801843FA05F359410EE0A5F1F6
:1002200020050EF1200E012A03FA0EFC28BF4CF027
:10023000020C43FA05F3C01851EBE37101F00045DD
:1002400007D54FF0000EDCF1000C7EEB00006EEBEA
:100250000101B1F5801F1BD3B1F5001F0CD3490874
:100260005FEA30004FEA3C0C04F101044FEA4452CB
:1002700012F5800F80F09A80BCF1004F08BF5FEA52
:10028000500C50F1000041EB045141EA050130BD32
:100290005FEA4C0C404141EB0101013C28BFB1F544
:1002A000801FE9D291F0000F04BF01460020B1FA8F
:1002B00081F308BF2033A3F10B03B3F120020CDA62
:1002C0000C3208DD02F1140CC2F10C0201FA0CF040
:1002D00021FA02F10CE002F11402D8BFC2F1200CA5
:1002E00001FA02F120FA0CFCDCBF41EA0C0190405B
:1002F000E41AA2BF01EB0451294330BD6FEA0404A4
:100300001F3C1CDA0C340EDC04F11404C4F120028E
:1003100020FA04F001FA02F340EA030021FA04F3A0
:1003200045EA030130BDC4F10C04C4F1200220FAF7
:1003300002F001FA04F340EA0300294630BD21FA35
:1003400004F0294630BD94F0000F83F4801306BFFB
:1003500081F480110134013D4EE77FEA645C18BFEF
:100360007FEA655C29D094EA050F08BF90EA020F86
:1003700005D054EA000C04BF1946104630BD91EA7E
:10038000030F1EBF0021002030BD5FEA545C05D181
:100390004000494128BF41F0004130BD14F58004C0
:1003A0003CBF01F5801130BD01F0004545F0FE4134
:1003B00041F470014FF0000030BD7FEA645C1ABF69
:1003C000194610467FEA655C1CBF0B46024650EAA0
:1003D000013406BF52EA033591EA030F41F40021CC
:1003E00030BD00BF90F0000F04BF0021704730B552
:1003F0004FF4806404F132044FF000054FF0000127
:1004000050E700BF90F0000F04BF0021704730B5E7
:100410004FF4806404F1320410F0004548BF4042BC
:100420004FF000013EE700BF42004FEAE2014FEA11
:1004300031014FEA02701FBF12F07F4393F07F4FEC
:1004400081F06051704732F07F4208BF704793F0EF
:100450007F4F04BF41F40021704730B54FF4607402
:1004600001F0004521F000411CE700BF50EA010205
:1004700008BF704730B54FF000050AE050EA0102AE
:1004800008BF704730B511F0004502D5404261EB1E
:1004900041014FF4806404F132045FEA915C3FF45F
:1004A000D8AE4FF003025FEADC0C18BF03325FEAFC
:1004B000DC0C18BF033202EBDC02C2F1200300FAAD
:1004C00003FC20FA02F001FA03FE40EA0E0021FAD2
:1004D00002F11444BDE600BF70B54FF0FF0C4CF4C0
:1004E000E06C1CEA11541DBF1CEA135594EA0C0F72
:1004F00095EA0C0F00F0DEF82C4481EA030621EAAD
:100500004C5123EA4C5350EA013518BF52EA0335E7
:1005100041F4801143F4801338D0A0FB02CE4FF099
:100520000005E1FB02E506F00042E0FB03E54FF0C9
:100530000006E1FB03569CF0000F18BF4EF0010EC1
:10054000A4F1FF04B6F5007F64F5407404D25FEABD
:100550004E0E6D4146EB060642EAC62141EA555170
:100560004FEAC52040EA5E504FEACE2EB4F1FD0CB2
:1005700088BFBCF5E06F1ED8BEF1004F08BF5FEA30
:10058000500E50F1000041EB045170BD06F00046E2
:1005900046EA010140EA020081EA0301B4EB5C048F
:1005A000C2BFD4EB0C0541EA045170BD41F4801187
:1005B0004FF0000E013C00F3AB8014F1360FDEBFAC
:1005C000002001F0004170BDC4F10004203C35DA88
:1005D0000C341BDC04F11404C4F1200500FA05F30B
:1005E00020FA04F001FA05F240EA020001F00042AC
:1005F00021F0004110EBD37021FA04F642EB060122
:100600005EEA430E08BF20EAD37070BDC4F10C044B
:10061000C4F1200500FA04F320FA05F001FA04F20F
:1006200040EA020001F0004110EBD37041F10001FB
:100630005EEA430E08BF20EAD37070BDC4F1200506
:1006400000FA05F24EEA020E20FA04F301FA05F26E
:1006500043EA020321FA04F001F0004121FA04F216
:1006600020EA020000EBD3705EEA430E08BF20EAE6
:10067000D37070BD94F0000F0FD101F00046400020
:1006800041EB010111F4801F08BF013CF7D041EAA2
:10069000060195F0000F18BF704703F000465200A6
:1006A00043EB030313F4801F08BF013DF7D043EA77
:1006B0000603704794EA0C0F0CEA135518BF95EA2D
:1006C0000C0F0CD050EA410618BF52EA4306D1D1B4
:1006D00081EA030101F000414FF0000070BD50EAD3
:1006E000410606BF1046194652EA430619D094EA5D
:1006F0000C0F02D150EA013613D195EA0C0F05D147
:1007000052EA03361CBF104619460AD181EA03019A
:1007100001F0004141F0FE4141F470014FF0000052
:1007200070BD41F0FE4141F4780170BD70B54FF0ED
:10073000FF0C4CF4E06C1CEA11541DBF1CEA13556D
:1007400094EA0C0F95EA0C0F00F0A7F8A4EB05044F
:1007500081EA030E52EA03354FEA013100F0888046
:100760004FEA03334FF0805545EA131343EA12630F
:100770004FEA022245EA111545EA10654FEA0026C4
:100780000EF000419D4208BF964244F1FD0404F57D
:10079000407402D25B084FEA3202B61A65EB0305D9
:1007A0005B084FEA32024FF480104FF4002CB6EB96
:1007B000020E75EB030E22BFB61A754640EA0C0016
:1007C0005B084FEA3202B6EB020E75EB030E22BF56
:1007D000B61A754640EA5C005B084FEA3202B6EB97
:1007E000020E75EB030E22BFB61A754640EA9C0056
:1007F0005B084FEA3202B6EB020E75EB030E22BF26
:10080000B61A754640EADC0055EA060E18D04FEAE3
:10081000051545EA16754FEA06164FEAC30343EA83
:1008200052734FEAC2025FEA1C1CC0D111F4801F50
:100830000BD141EA00014FF000004FF0004CB6E749
:1008400011F4801F04BF01430020B4F1FD0C88BFE8
:10085000BCF5E06F3FF6AFAEB5EB030C04BFB6EBF3
:10086000020C5FEA500C50F1000041EB045170BDE6
:100870000EF0004E4EEA113114EB5C04C2BFD4EB13
:100880000C0541EA045170BD41F480114FF0000E97
:10089000013C90E645EA060E8DE60CEA135594EA13
:1008A0000C0F08BF95EA0C0F3FF43BAF94EA0C0F16
:1008B0000AD150EA01347FF434AF95EA0C0F7FF48B
:1008C00025AF104619462CE795EA0C0F06D152EADF
:1008D00003353FF4FDAE1046194622E750EA4106C3
:1008E00018BF52EA43067FF4C5AE50EA41047FF4D4
:1008F0000DAF52EA43057FF4EBAE12E74FF0FF3C39
:1009000006E000BF4FF0010C02E000BF4FF0010C09
:100910004DF804CD4FEA410C7FEA6C5C4FEA430C82
:1009200018BF7FEA6C5C1BD001B050EA410C0CBFD1
:1009300052EA430C91EA030F02BF90EA020F002033
:10094000704710F1000F91EA030F58BF994208BF9A
:1009500090422CBFD8176FEAE37040F00100704757
:100960004FEA410C7FEA6C5C02D150EA013C07D1AE
:100970004FEA430C7FEA6C5CD6D152EA033CD3D0F9
:100980005DF8040B704700BF8446104662468C46F3
:100990001946634600E000BF01B5FFF7B7FF002826
:1009A00048BF10F1000F01BD4DF808EDFFF7F4FF4F
:1009B0000CBF012000205DF808FB00BF4DF808EDDA
:1009C000FFF7EAFF34BF012000205DF808FB00BFFD
:1009D0004DF808EDFFF7E0FF94BF012000205DF81F
:1009E00008FB00BF4DF808EDFFF7CEFF94BF0120D4
:1009F00000205DF808FB00BF4DF808EDFFF7C4FFCD
:100A000034BF012000205DF808FB00BF4FEA410C15
:100A10007FEA6C5C02D150EA013C0AD14FEA430CF8
:100A20007FEA6C5C02D152EA033C02D14FF0000035
:100A300070474FF0010070474FEA410212F5001273
:100A400015D211D56FF47873B3EB625212D94FEA15
:100A5000C12343F0004343EA505311F0004F23FAFF
:100A600002F018BF404270474FF00000704750EA54
:100A7000013005D111F0004008BF6FF00040704711
:100A80004FF00000704700BF80F0004002E000BF60
:100A900081F0004142001FBF5FEA410392EA030F69
:100AA0007FEA226C7FEA236C6AD04FEA1262D2EBB3
:100AB0001363C1BFD218414048404140B8BF5B42B8
:100AC000192B88BF704710F0004F40F4000020F051
:100AD0007F4018BF404211F0004F41F4000121F067
:100AE0007F4118BF494292EA030F3FD0A2F10102B1
:100AF00041FA03FC10EB0C00C3F1200301FA03F1EF
:100B000000F0004302D5494260EB4000B0F5000F11
:100B100013D3B0F1807F06D340084FEA310102F1D0
:100B20000102FE2A51D2B1F1004F40EBC25008BF82
:100B300020F0010040EA03007047490040EB00004C
:100B4000013A28BFB0F5000FEDD2B0FA80FCACF14D
:100B5000080CB2EB0C0200FA0CF0AABF00EBC2507A
:100B600052421843BCBFD0401843704792F0000F68
:100B700081F4000106BF80F400000132013BB5E7BB
:100B80004FEA41037FEA226C18BF7FEA236C21D031
:100B900092EA030F04D092F0000F08BF0846704796
:100BA00090EA010F1CBF0020704712F07F4F04D164
:100BB000400028BF40F00040704712F100723CBF77
:100BC00000F50000704700F0004343F0FE4040F4A1
:100BD000000070477FEA226216BF08467FEA23635F
:100BE0000146420206BF5FEA412390EA010F40F44A
:100BF000800070474FF0000304E000BF10F0004396
:100C000048BF40425FEA000C08BF704743F096437C
:100C100001464FF000001CE050EA010208BF704797
:100C20004FF000030AE000BF50EA010208BF70471E
:100C300011F0004302D5404261EB41015FEA010C33
:100C400002BF84460146002043F0B64308BFA3F12B
:100C50008053A3F50003BCFA8CF2083AA3EBC2530D
:100C600010DB01FA02FC634400FA02FCC2F120022C
:100C7000BCF1004F20FA02F243EB020008BF20F063
:100C80000100704702F1200201FA02FCC2F12002C9
:100C900050EA4C0021FA02F243EB020008BF20EABE
:100CA000DC7070474FF0FF0C1CEAD0521EBF1CEAEC
:100CB000D15392EA0C0F93EA0C0F6FD01A4480EADA
:100CC000010C400218BF5FEA41211ED04FF00063C3
:100CD00043EA501043EA5111A0FB01310CF00040EF
:100CE000B1F5000F3EBF490041EAD3715B0040EA15
:100CF000010062F17F02FD2A1DD8B3F1004F40EBE5
:100D0000C25008BF20F00100704790F0000F0CF0B7
:100D1000004C08BF49024CEA502040EA51207F3A7B
:100D2000C2BFD2F1FF0340EAC250704740F4000056
:100D30004FF00003013A5DDC12F1190FDCBF00F047
:100D400000407047C2F10002410021FA02F1C2F1F5
:100D5000200200FA02FC5FEA310040F1000053EA91
:100D60004C0308BF20EADC70704792F0000F00F0DF
:100D7000004C02BF400010F4000F013AF9D040EAE5
:100D80000C0093F0000F01F0004C02BF490011F479
:100D9000000F013BF9D041EA0C018FE70CEAD15377
:100DA00092EA0C0F18BF93EA0C0F0AD030F0004CF7
:100DB00018BF31F0004CD8D180EA010000F00040AB
:100DC000704790F0000F17BF90F0004F084691F069
:100DD000000F91F0004F14D092EA0C0F01D14202A3
:100DE0000FD193EA0C0F03D14B0218BF084608D16C
:100DF00080EA010000F0004040F0FE4040F40000B6
:100E0000704740F0FE4040F4400070474FF0FF0C48
:100E10001CEAD0521EBF1CEAD15392EA0C0F93EA8F
:100E20000C0F69D0A2EB030280EA010C49024FEAE1
:100E3000402037D04FF0805343EA111143EA10139A
:100E40000CF000408B4238BF5B0042F17D024FF452
:100E5000000C8B4224BF5B1A40EA0C00B3EB510F2D
:100E600024BFA3EB510340EA5C00B3EB910F24BF16
:100E7000A3EB910340EA9C00B3EBD10F24BFA3EB9B
:100E8000D10340EADC001B0118BF5FEA1C1CE0D163
:100E9000FD2A3FF650AF8B4240EBC25008BF20F016
:100EA000010070470CF0004C4CEA50207F32C2BF6A
:100EB000D2F1FF0340EAC250704740F400004FF007
:100EC0000003013A37E792F0000F00F0004C02BF38
:100ED000400010F4000F013AF9D040EA0C0093F002
:100EE000000F01F0004C02BF490011F4000F013B5C
:100EF000F9D041EA0C0195E70CEAD15392EA0C0FC4
:100F000008D142027FF47DAF93EA0C0F7FF470AFFB
:100F1000084676E793EA0C0F04D14B023FF44CAF3E
:100F200008466EE730F0004C18BF31F0004CCAD1D3
:100F300030F000427FF45CAF31F000437FF43CAF0F
:100F40005FE700BF42000ED2B2F1FE4F0BD34FF06D
:100F50009E03B3EB126209D44FEA002343F000432F
:100F600023FA02F070474FF00000704712F1610F52
:100F700001D1420202D14FF0FF3070474FF0000024
:100F8000704700BF80B584B000AF3B1D00221A60DF
:100F90005A609A60184B194A1A60174B00229A60DF
:100FA000154B01221A73144B00221A75124B4FF481
:100FB0006022DA61104B00225A600F4B01221A6145
:100FC0000D4801F029FB0346002B01D000F0E9FB9E
:100FD00000237B600123BB600023FB603B1D19469F
:100FE000054801F0D1FD0346002B01D000F0D9FBEC
:100FF00000BF1037BD4680BDF8010020002401402D
:1010000080B588B000AF786007F1100300221A6045
:101010005A609A60DA607B681B68144A934221D157
:10102000134B9B69124A43F400739361104B9B6905
:1010300003F40073FB60FB680D4B9B690C4A43F0A3
:10104000040393610A4B9B6903F00403BB60BB6814
:1010500001233B6103237B6107F110031946054817
:1010600002F096F800BF2037BD4680BD0024014045
:10107000001002400008014080B485B000AF1A4B58
:101080009B69194A43F010039361174B9B6903F066
:101090001003FB60FB68144B9B69134A43F0200369
:1010A0009361114B9B6903F02003BB60BB680E4B3F
:1010B0009B690D4A43F0040393610B4B9B6903F05A
:1010C00004037B607B68084B9B69074A43F0080375
:1010D0009361054B9B6903F008033B603B6800BFCD
:1010E0001437BD4680BC70470010024080B500AF89
:1010F000124B134A1A60114B124A5A600F4B0022CE
:101100009A600E4B0022DA600C4B4FF480421A6159
:101110000A4B00225A61094B00229A61074B0022B8
:10112000DA61064B00221A62044802F0B5F9034660
:10113000002B01D000F035FB00BF80BD280200204D
:1011400000580040801A060080B588B000AF786073
:1011500007F1100300221A605A609A60DA607B6817
:101160001B68164A934224D1154B9B69144A43F0DD
:1011700008039361124B9B6903F00803FB60FB6853
:101180004FF440633B6112237B610323FB6107F152
:10119000100319460B4801F0FBFF094BDB69084AB5
:1011A00043F48003D361064BDB6903F48003BB6027
:1011B000BB6800BF2037BD4680BD00BF005800405F
:1011C00000100240000C014080B582B000AF052045
:1011D00003F066FB03467B607B6818460837BD4614
:1011E00080BD80B582B000AF0C2003F059FB0346F0
:1011F0007B607B6818460837BD4680BD80B588B0E7
:1012000002AF01F083F900F093F9FFF735FFFFF724
:101210006DFFFFF7B7FE78219C4800F05BFC78611A
:101220000021002000F056FC38614FF47A7001F084
:10123000CFF9786900F080FC786900F0DBFCFF21D1
:10124000786900F085FC786900F0E0FC786900F0CE
:1012500092FCFFF7C6FFF860FB683F221A72FB683A
:1012600003225A72FB684FF080421A60FB68884A7A
:101270005A60FFF7A9FFB860BB6805221A70BB6807
:101280000F225A70BB6805229A70BB681E22DA7062
:10129000BB6800221A71FFF797FF78607B68052210
:1012A0001A707B680F225A707B687A229A707B686A
:1012B0001E22DA707B6800221A712023019380239A
:1012C0000093002300227349786901F050F841F639
:1012D000583001F07DF9786900F0F8FD6E4801F0B2
:1012E000D7FD386900F076FC002301933F2300937B
:1012F0007F2300220021386901F094F87F230093B6
:101300003F2300223F21386900F005FF7F2300932F
:10131000402300224021386900F0FDFEF968386959
:1013200000F061F9B968386900F0C6F97968386980
:1013300000F0C2F93969786900F078FC142001F0F6
:1013400047F9FB681B7A1846FFF758FC0246FB6812
:101350001B6819461046FFF79DFB03461846FFF72A
:10136000F1FD0346DAB2FB681A72FB685B7A184635
:10137000FFF744FC0246FB685B6819461046FFF71E
:1013800089FB03461846FFF7DDFD0346DAB2FB682A
:101390005A72FB681B7A772B2CD9FB685B7A1A464A
:1013A0007B68DB78053B9A4213DBFB685B7A1A4665
:1013B0007B68DB7805339A420BDCFB681B6883F0A3
:1013C0000042FB681A60FB685B6883F00042FB68C0
:1013D0005A60FB681B7A7A2B0CD9FB6840221A7280
:1013E000FB681B6883F00042FB681A60FB684FF0E3
:1013F0007E521A60FB681B7A072B2CD8FB685B7A3D
:101400001A46BB68DB78053B9A4213DBFB685B7AC4
:101410001A46BB68DB7805339A420BDCFB681B6815
:1014200083F00042FB681A60FB685B6883F000424F
:10143000FB685A60FB681B7A042B0CD8FB683F22C0
:101440001A72FB681B6883F00042FB681A60FB6835
:101450004FF07E521A60FB685B7A3C2B08D9FB6820
:101460003D225A72FB685B6883F00042FB685A6059
:10147000FB685B7A022B11D8FB6802225A72FB6868
:101480005B6883F00042FB685A6007E02802002096
:101490000000404000730008F8010020FB681B7A40
:1014A000372B25D8BB68DA78FB685B7A9A420CD96F
:1014B000BB68DB78023BDAB2BB68DA70BB68DB780A
:1014C000062B02D8BB680622DA70BB68DA78FB68A4
:1014D0005B7A9A420CD2BB68DB780233DAB2BB6823
:1014E000DA70BB68DB783A2B02D9BB683A22DA7033
:1014F0000D4801F069F9C8210B4801F03FFA0A488C
:1015000001F036FB03467B80074801F00BFAB7F980
:101510000230064A82FB0312D210DB17D31A1BB229
:10152000DAB27B68DA70DCE6F8010020FDB0481919
:1015300080B594B000AF07F1280328220021184697
:1015400003F0B6F907F1140300221A605A609A609A
:10155000DA601A613B1D00221A605A609A60DA60F4
:101560000123BB624FF48033FB6200233B63012302
:10157000BB6302237B644FF48033BB644FF4E013FE
:10158000FB6407F12803184602F0D0FB0346002B4A
:1015900001D000F006F90F237B610223BB61002319
:1015A000FB614FF480633B6200237B6207F114030D
:1015B0000221184602F03CFE0346002B01D000F049
:1015C000F0F802237B604FF40043FB603B1D18469C
:1015D00002F0C6FF0346002B01D000F0E2F800BF86
:1015E0005037BD4680BD80B582B000AF78603960AD
:1015F0003B681B7A013BD9B23B685B7A013BDBB2AB
:101600001A46786800F0A9FB3B681B7A013BD9B207
:101610003B685B7A1A46786800F09FFB3B681B7A50
:10162000013BD9B23B685B7A0133DBB21A4678687A
:1016300000F093FB3B68197A3B685B7A013BDBB2B5
:101640001A46786800F089FB3B68197A3B685B7A38
:101650001A46786800F081FB3B68197A3B685B7A30
:101660000133DBB21A46786800F077FB3B681B7ADF
:101670000133D9B23B685B7A013BDBB21A4678682A
:1016800000F06BFB3B681B7A0133D9B23B685B7A95
:101690001A46786800F061FB3B681B7A0133D9B2C7
:1016A0003B685B7A0133DBB21A46786800F055FB81
:1016B00000BF0837BD4680BD90B587B002AF7860E7
:1016C00039600523FB730123BB733B689A78BB7BAE
:1016D000D31AD9B23B68DA78FB7BD31AD8B23B680D
:1016E0009A78BB7B1344DCB23B68DA78FB7BD31A75
:1016F000DBB2009323460246786800F026FC3B6884
:101700009A78BB7BD31AD9B23B68DA78FB7BD31AC1
:10171000D8B23B689A78BB7BD31ADCB23B68DA78E4
:10172000FB7B1344DBB2009323460246786800F04B
:101730000CFC3B689A78BB7BD31AD9B23B68DA7849
:10174000FB7B1344D8B23B689A78BB7B1344DCB272
:101750003B68DA78FB7B1344DBB2009323460246F6
:10176000786800F0F2FB3B689A78BB7B1344D9B2EF
:101770003B68DA78FB7B1344D8B23B689A78BB7B32
:101780001344DCB23B68DA78FB7BD31ADBB20093FC
:1017900023460246786800F0D8FB00BF1437BD46E8
:1017A00090BD80B400AF72B600BFFEE780B485B0D4
:1017B00000AF154B9B69144A43F001039361124B30
:1017C0009B6903F00103BB60BB680F4BDB690E4AEA
:1017D00043F08053D3610C4BDB6903F080537B6093
:1017E0007B680A4B5B68FB60FB6823F0E063FB608F
:1017F000FB6843F00073FB60044AFB68536000BF62
:101800001437BD4680BC7047001002400000014004
:1018100080B400AFFEE780B400AFFEE780B400AF55
:10182000FEE780B400AFFEE780B400AFFEE780B40F
:1018300000AF00BFBD4680BC704780B400AF00BFA2
:10184000BD4680BC704780B400AF00BFBD4680BCC1
:10185000704780B500AF00F09FFE00BF80BD80B430
:1018600000AF01231846BD4680BC704780B582B0EA
:1018700000AF7860396002F0E9FF034616221A6073
:101880004FF0FF3318460837BD4680BD80B582B0A3
:1018900000AF78604FF0FF317868FFF7E7FFFEE7B1
:1018A00080B586B000AFF860B9607A6000237B61D4
:1018B0000AE0AFF300800146BB685A1CBA60CAB2A6
:1018C0001A707B6901337B617A697B689A42F0DB2D
:1018D0007B6818461837BD4680BD80B586B000AF1E
:1018E000F860B9607A6000237B6109E0BB685A1C2C
:1018F000BA601B781846AFF300807B6901337B61C7
:101900007A697B689A42F1DB7B6818461837BD46D6
:1019100080BD80B483B000AF78604FF0FF331846CD
:101920000C37BD4680BC704780B483B000AF786090
:1019300039603B684FF400525A60002318460C3758
:10194000BD4680BC704780B483B000AF786001238F
:1019500018460C37BD4680BC704780B485B000AFD8
:10196000F860B9607A60002318461437BD4680BC21
:101970007047000080B586B000AF7860144A154B00
:10198000D31A7B617B693B61134B1B68002B02D12F
:10199000114B124A1A60104B1A687B6813443A695B
:1019A0009A4207D202F052FF03460C221A604FF00F
:1019B000FF3309E0084B1B68FB60074B1A687B6824
:1019C0001344054A1360FB6818461837BD4680BDAE
:1019D00000500020000400007C020020980200203B
:1019E00080B400AF00BFBD4680BC704780B586B0F4
:1019F00002AF78600B46FB707B681B68002B12D02F
:101A000000233B73FB787B737B6818687B681B79CA
:101A100099B207F10C024FF0FF330093022301F05B
:101A20007FFE0346FB7300BF1037BD4680BD80B507
:101A300086B002AF78600B46FB707B681B68002B9A
:101A400012D040233B73FB787B737B6818687B68FC
:101A50001B7999B207F10C024FF0FF330093022378
:101A600001F05EFE0346FB7300BF1037BD4680BD2C
:101A700080B483B000AF03460A46FB711346BB71C6
:101A8000BB799BB2DB019AB2FB799BB213449BB248
:101A900018460C37BD4680BC704780B483B000AF99
:101AA0000346FB80FB88DBB203F07F03DBB2184602
:101AB0000C37BD4680BC704780B483B000AF03468E
:101AC000FB80FB88DB099BB2DBB218460C37BD46B6
:101AD00080BC704780B584B000AF78600B46FB7067
:101AE0000C2002F0DDFE0346FB60FB68FA781A71F9
:101AF000FB687A681A604FF4806002F0D1FE0346FA
:101B00001A46FB689A60FB689B684FF4806200216C
:101B1000184602F0CDFEFB6818461037BD4680BD62
:101B200080B582B000AF7860AF217868FFF75EFFC4
:101B300000BF0837BD4680BD80B582B000AF786079
:101B4000AE217868FFF752FF00BF0837BD4680BD61
:101B500080B582B000AF78600B46FB708121786859
:101B6000FFF744FFFB7819467868FFF73FFF00BF97
:101B70000837BD4680BD80B584B000AF7860786816
:101B8000FFF7DAFF0023FB731AE0FB7B1946786846
:101B900000F0B8F80023BB730BE0BB7B19467868F4
:101BA00000F08DF800217868FFF741FFBB7B01331F
:101BB000BB7397F90E30002BEFDAFB7B0133FB731D
:101BC000FB7B072BE1D97868FFF7AAFF00BF10372E
:101BD000BD4680BD80B582B000AF78607B689B68F1
:101BE0004FF480620021184602F062FE00BF083701
:101BF000BD4680BD80B582B000AF7860A621786810
:101C0000FFF7F4FE00BF0837BD4680BD80B582B047
:101C100000AF7860D5217868FFF7E8FE002178688A
:101C2000FFF7E4FE00BF0837BD4680BD80B584B035
:101C300000AF7860396000237B7300233B7300237F
:101C4000FB8133E07B689A68FB8913441A783B6810
:101C50009968FB890B441B789A4224D0FB8918466B
:101C6000FFF71BFF03463B73FB891846FFF724FF72
:101C700003467B737A7B3B7B1946786800F057F804
:101C80003B689A68FB891A447B689968FB890B4416
:101C900012781A707B689A68FB8913441B7819467E
:101CA0007868FFF7C4FEFB890133FB81FB89B3F53C
:101CB000806FC7D300BF00BF1037BD4680BD80B561
:101CC00082B000AF78600B46FB7097F90330002BB1
:101CD00014DBFB780233FB70FB781B09DBB243F0AB
:101CE0001003DBB219467868FFF780FEFB7803F03B
:101CF0000F03DBB219467868FFF778FE00BF08379C
:101D0000BD4680BD80B582B000AF78600B46FB70E9
:101D1000FB78072B07D8FB7863F04F03DBB219463B
:101D20007868FFF763FE00BF0837BD4680BD80B509
:101D300082B000AF78600B46FB701346BB70BB7877
:101D400019467868FFF7DEFFFB7819467868FFF7D9
:101D5000B6FF00BF0837BD4680BD80B584B000AF78
:101D600078600B46FB701346BB7097F90330002B6D
:101D70004ADBBB783F2B47D8BB78DB08FB73FA7B89
:101D8000FB7811461846FFF773FE0346BB81BB780C
:101D900003F00703FB727B689A68BB8913441B78C6
:101DA00019467B689A68BB8913441B781846FB7AEE
:101DB000012202FA03F30343994225D07B689A6813
:101DC000BB8913441B785AB2FB7A012101FA03F351
:101DD0005BB2134359B27B689A68BB891344CAB299
:101DE0001A70FB7819467868FFF769FFFB7B194684
:101DF0007868FFF787FF7B689A68BB8913441B7874
:101E000019467868FFF713FE00BF1037BD4680BD46
:101E100080B584B000AF78600B46FB701346BB7092
:101E200097F90330002B4DDBBB783F2B4AD8BB78AA
:101E3000DB08FB73FA7BFB7811461846FFF718FEA8
:101E40000346BB81BB7803F00703FB727B689A688B
:101E5000BB8913441B7819467B689A68BB89134475
:101E60001B781846FB7A012202FA03F3DB43034096
:101E7000994227D07B689A68BB8913441B785AB271
:101E8000FB7A012101FA03F35BB2DB435BB213403F
:101E900059B27B689A68BB891344CAB21A70FB783E
:101EA00019467868FFF70BFFFB7B19467868FFF748
:101EB00029FF7B689A68BB8913441B7819467868A8
:101EC000FFF7B5FD00BF1037BD4680BD80B584B0BB
:101ED00000AF78600023FB732FE00023BB7325E085
:101EE000FA7BBB7B11461846FFF7C2FD0346BB8158
:101EF0007B689A68BB8913441B78002B13D07B68DE
:101F00009A68BB89134400221A70FB7B19467868D3
:101F1000FFF7F8FEBB7B19467868FFF7D0FE00217B
:101F20007868FFF784FDBB7B0133BB7397F90E30F4
:101F3000002BD5DAFB7B0133FB73FB7B072BCCD962
:101F400000BF00BF1037BD4680BD90B589B000AF5F
:101F50007860084611461A460346FB700B46BB7074
:101F600013467B70FA787B789A420BD1BA7897F84F
:101F700030309A4206D1BA78FB7819467868FFF774
:101F8000ECFEC5E07A78FB78D31ADBB2FB7797F9E1
:101F90001F30002B02DA4FF0FF3300E00123BB7744
:101FA00097F83020BB78D31ADBB27B7797F91D30D6
:101FB000002B02DA4FF0FF3300E001233B7797F963
:101FC0001D30002BB8BF5B42DAB297F91F30002BEF
:101FD000B8BF5B42DBB29A4249D297F91D3018462E
:101FE000FEF70CFE044697F91F301846FEF706FE72
:101FF000034619462046FEF709FF03463B61BB78BE
:102000001846FEF7FBFD0446FB781846FEF7F6FD82
:10201000034639691846FEF745FE03461946204631
:10202000FEF736FD0346FB601CE0FB781846FEF722
:10203000E5FD034639691846FEF734FE0346F968A4
:102040001846FEF727FD03461846FEF77BFF0346BA
:10205000DAB2FB7819467868FFF77FFEBA7FFB7823
:102060001344FB70FA787B789A42DED149E097F905
:102070001F301846FEF7C2FD044697F91D3018467A
:10208000FEF7BCFD034619462046FEF7BFFE034699
:10209000BB61FB781846FEF7B1FD0446BB781846D5
:1020A000FEF7ACFD0346B9691846FEF7FBFD034693
:1020B00019462046FEF7ECFC03467B611CE0BB782A
:1020C0001846FEF79BFD0346B9691846FEF7EAFD80
:1020D000034679691846FEF7DDFC03461846FEF70D
:1020E00031FF0346DBB2BA7819467868FFF735FE50
:1020F0003A7FBB781344BB70BA7897F830309A4275
:10210000DDD197F830207B7819467868FFF725FEF7
:102110002437BD4690BD90B589B000AF78600846C1
:1021200011461A460346FB700B46BB7013467B7084
:10213000FA787B789A420BD1BA7897F830309A4285
:1021400006D1BA78FB7819467868FFF706FE0BE1EE
:102150000123FB777A78FB78D31ADBB2BB7797F948
:102160001E30002B02DA4FF0FF3300E001237B77B3
:1021700097F83020BB78D31ADBB23B7797F91C3045
:10218000002B02DA4FF0FF3300E00123FB7697F9D2
:102190001C30002BB8BF5B42DAB297F91E30002B1F
:1021A000B8BF5B42DBB29A426BD297F91C3018463B
:1021B000FEF724FD044697F91E301846FEF71EFD73
:1021C000034619462046FEF721FE0346FB60BB7816
:1021D0001846FEF713FD0446FB781846FEF70EFD81
:1021E0000346F9681846FEF75DFD0346194620468A
:1021F000FEF74EFC0346BB603EE097F91F30002B14
:102200001BD0FB781846FEF7F9FC0346F968184620
:10221000FEF748FD0346B9681846FEF73BFC034647
:102220001846FEF78FFE0346DAB2FB781946786847
:10223000FFF793FD0023FB771AE0FB781846FEF7C3
:10224000DDFC0346F9681846FEF72CFD0346B96825
:102250001846FEF71FFC03461846FEF773FE0346BA
:10226000DAB2FB7819467868FFF7D2FD0123FB77D5
:102270007A7FFB781344FB70FA787B789A42BCD162
:102280006BE097F91E301846FEF7B8FC044697F944
:102290001C301846FEF7B2FC034619462046FEF7EE
:1022A000B5FD03467B61FB781846FEF7A7FC0446A4
:1022B000BB781846FEF7A2FC034679691846FEF77C
:1022C000F1FC034619462046FEF7E2FB03463B615C
:1022D0003EE097F91F30002B1BD0BB781846FEF765
:1022E0008DFC034679691846FEF7DCFC0346396924
:1022F0001846FEF7CFFB03461846FEF723FE0346BB
:10230000DBB2BA7819467868FFF727FD0023FB7720
:102310001AE0BB781846FEF771FC03467969184647
:10232000FEF7C0FC034639691846FEF7B3FB0346C7
:102330001846FEF707FE0346DBB2BA7819467868FE
:10234000FFF766FD0123FB77FA7EBB781344BB7071
:10235000BA7897F830309A42BBD197F830207B7822
:1023600019467868FFF7F9FC2437BD4690BD80B563
:1023700086B000AFF860B96011461A460B46FB7193
:102380001346BB7197F820309BB297F8242092B285
:1023900002FB03F37B820023FB8280237B740023F8
:1023A000BB8236E0BB8ADB089BB21A46BB6813448B
:1023B0001B7819467A7CBB8A03F0070342FA03F3C1
:1023C0000B40002B0AD0FB8ADAB2FB791344DBB254
:1023D000BA791946F868FFF7C0FC09E0FB8ADAB25F
:1023E000FB791344DBB2BA791946F868FFF710FDA0
:1023F000FB8A0133FB8297F820309BB2FA8A9A421B
:1024000004D1BB790133BB710023FB82BB8A01334A
:10241000BB82BA8A7B8A9A42C4D300BF00BF1837F6
:10242000BD4680BD90B585B002AF786008461146C4
:102430001A460346FB700B46BB7013467B70FA7856
:102440007B781344D8B2BA78F978BB780093034606
:102450007868FFF77AFDBA783B7E1344DBB2F878F0
:10246000BA78F978009303467868FFF76EFDFA783A
:102470007B781344D9B2FA787B781344D8B2BA780F
:102480003B7E1344DBB2BA78009303467868FFF7CB
:102490005CFDBA783B7E1344D8B2FA787B7813445B
:1024A000DCB2BA783B7E1344DBB2F9780093234662
:1024B00002467868FFF749FD00BF0C37BD4690BD66
:1024C000002103E00B4B5B58435004310A480B4B8F
:1024D00042189A42F6D30A4A02E0002342F8043B2B
:1024E000084B9A42F9D3FFF77BFA02F0B5F9FEF7F1
:1024F00085FE7047FC78000800000020DC01002009
:10250000DC01002094020020FEE7000080B500AF4F
:10251000084B1B68074A43F010031360032000F0C8
:1025200003FE002000F008F8FFF740F900231846EA
:1025300080BD00BF0020024080B582B000AF78604F
:10254000124B1A68124B1B7819464FF47A73B3FB7F
:10255000F1F3B2FBF3F3184600F00DFE0346002B37
:1025600001D001230EE07B680F2B0AD80022796886
:102570004FF0FF3000F0E3FD064A7B681360002354
:1025800000E0012318460837BD4680BD000000204A
:10259000080000200400002080B400AF054B1B7829
:1025A0001A46054B1B681344034A136000BFBD461F
:1025B00080BC7047080000208002002080B400AF7B
:1025C000024B1B681846BD4680BC70478002002045
:1025D00080B584B000AF7860FFF7F0FFB8607B682B
:1025E000FB60FB68B3F1FF3F05D00A4B1B781A462E
:1025F000FB681344FB6000BFFFF7E0FF0246BB68C7
:10260000D31AFA689A42F7D800BF00BF1037BD4608
:1026100080BD00BF0800002080B586B000AF7860A4
:102620000023FB7500233B610023BB600023FB609C
:102630007B68002B01D10123BEE07B689B68002BE7
:102640007B689B6A002B09D17B680022DA627B6879
:10265000002283F824207868FEF7D2FC786800F026
:10266000DDFB0346FB757B689B6A03F01003002BC0
:1026700040F09980FB7D002B40F095807B689B6A41
:1026800023F4885323F0020343F002027B689A622A
:102690007B685A687B68DB691A437B681B7B5B003D
:1026A0001343BA681343BB607B689B68B3F5807FB4
:1026B00003D07B689B68012B02D14FF4807300E04C
:1026C00000233A6913433B617B681B7D012B19D1C1
:1026D0007B681B7B002B09D17B689B69013B5A03FC
:1026E0003B69134343F400633B610BE07B689B6AE7
:1026F00043F020027B689A627B68DB6A43F0010248
:102700007B68DA627B681B685B6823F469417B68DD
:102710001B683A690A435A607B681B689A68284BB1
:1027200013407A681268B9680B4393607B689B68B2
:10273000B3F5807F03D07B689B68012B04D17B6855
:102740001B69013B1B05FB607B681B68DB6A23F48C
:1027500070017B681B68FA680A43DA627B681B6851
:102760009A68184B1340BA689A420BD17B680022D2
:10277000DA627B689B6A23F0030343F001027B6803
:102780009A6218E07B689B6A23F0120343F0100200
:102790007B689A627B68DB6A43F001027B68DA62DD
:1027A0000123FB7507E07B689B6A43F010027B689E
:1027B0009A620123FB75FB7D18461837BD4680BD24
:1027C000FDF7E1FFFE0E1FFF80B584B000AF78601B
:1027D0000023FB737B6893F82430012B01D1022383
:1027E00098E07B68012283F82420786800F0C4FA1E
:1027F0000346FB73FB7B002B40F087807B689B6A62
:1028000023F4407323F0010343F480727B689A62DF
:102810007B681B68414A934205D1414B5B6803F4D6
:102820007023002B15D17B689B6A23F480127B6890
:102830009A627B681B685B6803F48063002B26D078
:102840007B689B6A23F4405343F480527B689A620E
:102850001DE07B689B6A43F480127B689A627B6808
:102860001B682F4A934204D07B681B682B4A934213
:102870000DD12B4B5B6803F48063002B07D07B6882
:102880009B6A23F4405343F480527B689A627B68CE
:102890009B6A03F48053002B06D07B68DB6A23F02D
:1028A00006027B68DA6202E07B680022DA627B68FB
:1028B000002283F824207B681B686FF002021A60F4
:1028C0007B681B689B6803F46023B3F5602F13D10A
:1028D0007B681B68114A934205D1114B5B6803F476
:1028E0007023002B08D17B681B689A687B681B6883
:1028F00042F4A0029A600CE07B681B689A687B68CF
:102900001B6842F480129A6003E07B68002283F81F
:102910002420FB7B18461037BD4680BD00280140AF
:102920000024014080B584B000AF78600023FB73C1
:102930007B6893F82430012B01D102231AE07B68D5
:10294000012283F82420786800F068FA0346FB73BC
:10295000FB7B002B09D17B689B6A23F4885323F00F
:10296000010343F001027B689A627B68002283F8CE
:102970002420FB7B18461037BD4680BD90B587B03C
:1029800000AF7860396000237B610023FB60002387
:102990003B61FFF713FE78617B681B689B6803F45B
:1029A0008073002B0BD07B689B6A43F020027B680E
:1029B0009A627B68002283F824200123C8E07B68A8
:1029C0001B685B6803F48073002B2AD17B681B684B
:1029D000DB6A03F47003002B23D11AE03B68B3F1E8
:1029E000FF3F16D03B68002B07D0FFF7E7FD0246FC
:1029F0007B69D31A3A689A420BD27B689B6A43F090
:102A000004027B689A627B68002283F824200323F7
:102A10009EE07B681B681B6803F00203002BDDD07F
:102A20006CE04D4B1C68022001F050FE0346B4FBE5
:102A3000F3F27B681B681969484B0B40002B18D1D7
:102A40007B681B68D968464B0B40002B11D17B6813
:102A50001B681969434B0B40002B08D17B681B682E
:102A6000D968414B0B40002B01D1142320E02923CE
:102A70001EE07B681B6819693A4B0B40002B06D19E
:102A80007B681B68D968384B0B40002B0DD07B68E6
:102A90001B681969354B0B40002B08D17B681B68FC
:102AA000D968324B0B40002B01D1542300E0FC23AA
:102AB00002FB03F33B611DE03B68B3F1FF3F16D01F
:102AC0003B68002B07D0FFF779FD02467B69D31ADC
:102AD0003A689A420BD27B689B6A43F004027B6897
:102AE0009A627B68002283F82420032330E0FB688D
:102AF0000133FB60FB683A699A42DDD87B681B684A
:102B00006FF012021A607B689B6A43F400727B6864
:102B10009A627B681B689B6803F46023B3F5602F9F
:102B200015D17B681B7B002B11D17B689B6A23F43A
:102B300080727B689A627B689B6A03F48053002BE7
:102B400005D17B689B6A43F001027B689A6200238F
:102B500018461C37BD4690BD000000202449922431
:102B60002449920092244912922449004992240057
:102B700080B483B000AF78607B681B68DB6C18465C
:102B80000C37BD4680BC704780B485B000AF78601C
:102B900039600023FB730023BB607B6893F824300B
:102BA000012B01D10223DCE07B68012283F8242081
:102BB0003B685B68062B1CD87B681B68596B3B68BD
:102BC0005A6813469B001344053B1F2202FA03F385
:102BD000DB4319403B6818683B685A6813469B0002
:102BE0001344053B00FA03F27B681B680A435A63EF
:102BF0003CE03B685B680C2B1CD87B681B68196B3E
:102C00003B685A6813469B001344233B1F2202FA79
:102C100003F3DB4319403B6818683B685A68134666
:102C20009B001344233B00FA03F27B681B680A43B2
:102C30001A631BE07B681B68D96A3B685A681346B5
:102C40009B001344413B1F2202FA03F3DB4319406C
:102C50003B6818683B685A6813469B001344413B25
:102C600000FA03F27B681B680A43DA623B681B6860
:102C7000092B1CD97B681B68D9683B681A68134606
:102C80005B0013441E3B072202FA03F3DB431940A7
:102C90003B6898683B681A6813465B0013441E3B08
:102CA00000FA03F27B681B680A43DA6019E07B686C
:102CB0001B6819693B681A6813465B0013440722B6
:102CC00002FA03F3DB4319403B6898683B681A68D3
:102CD00013465B00134400FA03F27B681B680A4347
:102CE0001A613B681B68102B03D03B681B68112BD3
:102CF00032D17B681B681D4A934225D17B681B68D3
:102D00009B6803F40003002B26D17B681B689A683C
:102D10007B681B6842F400029A603B681B68102BBA
:102D20001AD1134B1B68134AA2FB03239A0C1346B8
:102D30009B0013445B00BB6002E0BB68013BBB60CF
:102D4000BB68002BF9D107E07B689B6A43F0200247
:102D50007B689A620123FB737B68002283F824203E
:102D6000FB7B18461437BD4680BC704700240140E9
:102D70000000002083DE1B4380B584B000AF786084
:102D80000023FB600023BB607B681B689B6803F02B
:102D90000103012B39D07B681B689A687B681B682C
:102DA00042F001029A601B4B1B681B4AA2FB0323E3
:102DB0009B0CBB6002E0BB68013BBB60BB68002BA7
:102DC000F9D1FFF7FBFBF86018E0FFF7F7FB0246CD
:102DD000FB68D31A022B11D97B689B6A43F010025F
:102DE0007B689A627B68DB6A43F001027B68DA6287
:102DF0007B68002283F82420012307E07B681B689E
:102E00009B6803F00103012BDFD100231846103724
:102E1000BD4680BD0000002083DE1B4380B584B02A
:102E200000AF78600023FB607B681B689B6803F041
:102E30000103012B27D17B681B689A687B681B689C
:102E400022F001029A60FFF7B9FBF86014E0FFF787
:102E5000B5FB0246FB68D31A022B0DD97B689B6A2F
:102E600043F010027B689A627B68DB6A43F00102E0
:102E70007B68DA62012307E07B681B689B6803F0CC
:102E80000103012BE3D0002318461037BD4680BD57
:102E900090B587B000AF78600023FB750023FB601E
:102EA0007B6893F82430012B01D1022386E07B68F4
:102EB000012283F824207868FFF7B0FF0346FB75F2
:102EC000FB7D002B75D17B689B6A23F4885323F02C
:102ED000020343F002027B689A623A4B1C680220AC
:102EE00001F0F4FB0346B4FBF3F35B00FB6002E08C
:102EF000FB68013BFB60FB68002BF9D17868FFF7AA
:102F00003BFF7B681B689A687B681B6842F008027D
:102F10009A60FFF753FB386114E0FFF74FFB02465E
:102F20003B69D31A0A2B0DD97B689B6A23F01203E5
:102F300043F010027B689A627B68002283F82420A9
:102F400001233BE07B681B689B6803F00803002BB0
:102F5000E3D17B681B689A687B681B6842F00402B7
:102F60009A60FFF72BFB386114E0FFF727FB02465E
:102F70003B69D31A0A2B0DD97B689B6A23F0120395
:102F800043F010027B689A627B68002283F8242059
:102F9000012313E07B681B689B6803F00403002B8C
:102FA000E3D17B689B6A23F0030343F001027B6853
:102FB0009A627B68002283F82420FB7D18461C3728
:102FC000BD4690BD0000002080B485B000AF7860A1
:102FD0007B6803F00703FB600C4BDB68BB60BA68DF
:102FE0004FF6FF031340BB60FB681A02BB68134334
:102FF00043F0BF6343F40033BB60044ABB68D36053
:1030000000BF1437BD4680BC704700BF00ED00E034
:1030100080B400AF044BDB681B0A03F007031846BB
:10302000BD4680BC704700BF00ED00E080B483B0B7
:1030300000AF03463960FB7197F90730002B0ADBBC
:103040003B68DAB20C4997F907301201D2B20B444F
:1030500083F800230AE03B68DAB20849FB7903F001
:103060000F03043B1201D2B20B441A7600BF0C3797
:10307000BD4680BC704700BF00E100E000ED00E00D
:1030800080B489B000AFF860B9607A60FB6803F083
:103090000703FB61FB69C3F10703042B28BF04236B
:1030A000BB61FB690433062B02D9FB69033B00E0DB
:1030B00000237B614FF0FF32BB6902FA03F3DA436E
:1030C000BB681A407B699A404FF0FF317B6901FA77
:1030D00003F3D9437B680B40134318462437BD469E
:1030E00080BC704780B582B000AF78607B68013BE0
:1030F000B3F1807F01D301230FE00A4A7B68013BD3
:1031000053600F214FF0FF30FFF790FF054B002277
:103110009A60044B07221A60002318460837BD4600
:1031200080BD00BF10E000E080B582B000AF7860E5
:103130007868FFF749FF00BF0837BD4680BD80B5FE
:1031400086B000AF0346B9607A60FB7300237B61F1
:10315000FFF75EFF78617A68B9687869FFF790FFDA
:10316000024697F90F3011461846FFF75FFF00BF80
:103170001837BD4680BD80B582B000AF78607868F2
:10318000FFF7B0FF034618460837BD4680BD000074
:1031900080B48BB000AF7860396000237B6200237D
:1031A0003B6269E101227B6A02FA03F3FB613B683F
:1031B0001B68FA691340BB61BA69FB699A4240F027
:1031C00058813B685B689A4A93425ED0984A934222
:1031D00075D8984A934258D0964A93426FD8964AE7
:1031E000934252D0944A934269D8944A93424CD025
:1031F000924A934263D8924A934246D0904A93426D
:103200005DD8122B2AD8122B59D801A252F823F0DC
:103210008B3200086532000877320008B9320008A6
:10322000BF320008BF320008BF320008BF320008BA
:10323000BF320008BF320008BF320008BF320008AA
:10324000BF320008BF320008BF320008BF3200089A
:10325000BF3200086D32000881320008794A93427B
:1032600013D02CE03B68DB683B6229E03B68DB68FD
:1032700004333B6224E03B68DB6808333B621FE0B9
:103280003B68DB680C333B621AE03B689B68002BB1
:1032900002D104233B6213E03B689B68012B05D1FC
:1032A00008233B627B68FA691A6109E008233B62E4
:1032B0007B68FA695A6103E000233B6200E000BFCB
:1032C000BB69FF2B01D87B6801E07B6804337B611D
:1032D000BB69FF2B02D87B6A9B0002E07B6A083B3C
:1032E0009B003B617B691A680F213B6901FA03F37C
:1032F000DB431A40396A3B6901FA03F31A437B69DD
:103300001A603B685B6803F08053002B00F0B180CB
:103310004D4B9B694C4A43F0010393614A4B9B69B7
:1033200003F00103BB60BB68484A7B6A9B08023319
:1033300052F82330FB607B6A03F003039B000F22EB
:1033400002FA03F3DB43FA681340FB607B68404AF0
:10335000934213D07B683F4A93420DD07B683E4A2C
:10336000934207D07B683D4A934201D1032306E094
:10337000042304E0022302E0012300E000237A6A30
:1033800002F0030292009340FA681343FB602F4956
:103390007B6A9B080233FA6841F823203B685B682C
:1033A00003F48033002B06D02D4B1A682C49BB69DF
:1033B00013430B6006E02A4B1A68BB69DB432849BC
:1033C00013400B603B685B6803F40033002B06D0AE
:1033D000234B5A682249BB6913434B6006E0204BDC
:1033E0005A68BB69DB431E4913404B603B685B680E
:1033F00003F48013002B06D0194B9A681849BB6957
:1034000013438B6006E0164B9A68BB69DB43144993
:1034100013408B603B685B6803F40013002B21D0E2
:103420000F4BDA680E49BB691343CB6021E000BF44
:1034300000003210000031100000221000002110A6
:1034400000001210000011100010024000000140A6
:1034500000080140000C0140001001400014014030
:10346000000401400B4BDA68BB69DB430949134098
:10347000CB607B6A01337B623B681A687B6A22FA05
:1034800003F3002B7FF48EAE00BF00BF2C37BD4688
:1034900080BC70470004014080B584B000AF786004
:1034A0007B68002B01D101232BE17B6893F83D3031
:1034B000DBB2002B06D17B68002283F83C207868C1
:1034C000FDF742FE7B68242283F83D207B681B6861
:1034D0001A687B681B6822F001021A607B681B680F
:1034E0001A687B681B6842F400421A607B681B689C
:1034F0001A687B681B6822F400421A6000F0EAFF39
:10350000F8607B685B68814A934207D8FB68804A11
:10351000934294BF01230023DBB206E0FB687D4A9F
:10352000934294BF01230023DBB2002B01D001237F
:10353000E7E0FB68784AA2FB03239B0CBB607B6837
:103540001B685B6823F03F017B681B68BA680A430D
:103550005A607B681B681B6A23F03F017B685B68CD
:103560006A4A934202D8BB68013309E0BB684FF452
:10357000967202FB03F3694AA2FB03239B09013302
:103580007A6812680B4313627B681B68DB6923F45B
:103590004F4222F0FF027B685B685C498B4219D87E
:1035A000FB68591E7B685B685B00B1FBF3F3591C39
:1035B00040F6FC730B40002B0AD0FB68591E7B6859
:1035C0005B685B00B1FBF3F30133C3F30B0351E022
:1035D00004234FE07B689B68002B11D1FB68581EC9
:1035E0007B6859680B465B000B44B0FBF3F3013377
:1035F000C3F30B03002B0CBF01230023DBB212E04B
:10360000FB68581E7B6859680B469B000B44990069
:103610000B44B0FBF3F30133C3F30B03002B0CBFDC
:1036200001230023DBB2002B01D0012322E07B68C1
:103630009B68002B0ED1FB68581E7B6859680B46AF
:103640005B000B44B0FBF3F30133C3F30B0343F410
:1036500000430FE0FB68581E7B6859680B469B00CF
:103660000B4499000B44B0FBF3F30133C3F30B039A
:1036700043F44043796809681343CB617B681B6856
:103680001B6823F0C0017B68DA697B681B6A1A43F8
:103690007B681B680A431A607B681B689B6823F47D
:1036A000034323F0FF037A6811697A68D2681143F3
:1036B0007A6812680B4393607B681B68DB6823F0B1
:1036C000FF017B685A697B689B691A437B681B68AA
:1036D0000A43DA607B681B681A687B681B6842F0E3
:1036E00001021A607B6800221A647B68202283F83A
:1036F0003D207B6800221A637B68002283F83E200D
:10370000002318461037BD4680BD00BFA0860100CB
:103710007F841E00FF083D0083DE1B43D34D6210F3
:1037200080B588B002AFF8607A601A460B467B819C
:1037300013463B81FEF742FF7861FB6893F83D300A
:10374000DBB2202B40F0E0807B690093192301223B
:103750007049F86800F064F90346002B01D0022399
:10376000D3E0FB6893F83C30012B01D10223CCE07D
:10377000FB68012283F83C20FB681B681B6803F090
:103780000103012B07D0FB681B681A68FB681B68E4
:1037900042F001021A60FB681B681A68FB681B682C
:1037A00022F400621A60FB68212283F83D20FB6846
:1037B000102283F83E20FB6800221A64FB687A68B6
:1037C0005A62FB683A895A85FB685B8D9AB2FB683E
:1037D0001A85FB68504ADA6279897B693A6AF86827
:1037E00000F09CF80346002B01D001238DE000235C
:1037F0003B61FB681B685B693B61FB681B689B69FD
:103800003B613B6966E07A69396AF86800F0DEF985
:103810000346002B0DD0FB681B6C042B07D1FB6803
:103820001B681A68FB681B6842F400721A60012367
:103830006BE0FB685B6A1A78FB681B681A61FB68BF
:103840005B6A5A1CFB685A62FB685B8D9BB2013B4A
:103850009AB2FB685A85FB681B8D013B9AB2FB68E4
:103860001A85FB681B685B6903F00403042B1BD1FA
:10387000FB681B8D002B17D0FB685B6A1A78FB680E
:103880001B681A61FB685B6A5A1CFB685A62FB681A
:103890005B8D9BB2013B9AB2FB685A85FB681B8D1E
:1038A000013B9AB2FB681A857A69396AF86800F0B8
:1038B000CEF90346002B0DD0FB681B6C042B07D1FF
:1038C000FB681B681A68FB681B6842F400721A6088
:1038D00001231AE0FB681B8D002B94D1FB681B6849
:1038E0001A68FB681B6842F400721A60FB682022A9
:1038F00083F83D20FB68002283F83E20FB6800220D
:1039000083F83C20002300E0022318461837BD4608
:1039100080BD00BF020010000000FFFF80B588B02E
:1039200002AFF8607A603B600B467B81FB68DB6A24
:103930007B617B69082B06D07B69012B03D07B69F7
:1039400013F5803F08D1FB681B681A68FB681B6889
:1039500042F480721A600BE0FB681B6B122B07D1DC
:10396000FB681B681A68FB681B6842F480721A6067
:103970003B6800937B6800224FF00111F86800F06B
:103980004FF80346002B0DD0FB681B681B6803F43F
:103990008073B3F5807F03D1FB684FF400721A6423
:1039A000032335E0FB681B69B3F5804F08D17B89A1
:1039B000DBB21A46FB681B6802F0FE021A611BE0CC
:1039C0007B89DB11DBB203F00603DBB263F00F038C
:1039D000DAB2FB681B681A613B687A680E49F868BE
:1039E00000F075F80346002B01D0012310E07B891D
:1039F000DAB2FB681B681A613B687A680749F868A5
:103A000000F065F80346002B01D0012300E00023FD
:103A100018461837BD4680BD0800010002000100AD
:103A200080B584B000AFF860B9603B601346FB71AD
:103A300025E03B68B3F1FF3F21D0FEF7BFFD024612
:103A4000BB69D31A3A689A4202D33B68002B16D15D
:103A5000FB6800221A63FB68202283F83D20FB6884
:103A6000002283F83E20FB681B6C43F02002FB68B9
:103A70001A64FB68002283F83C20012323E0BB6822
:103A80001B0CDBB2012B0DD1FB681B685B69DA43B1
:103A9000BB6813409BB2002B0CBF01230023DBB299
:103AA0001A460CE0FB681B689B69DA43BB6813404D
:103AB0009BB2002B0CBF01230023DBB21A46FB791B
:103AC0009A42B6D0002318461037BD4680BD80B557
:103AD00084B000AFF860B9607A603B6051E0FB6889
:103AE0001B685B6903F48063B3F5806F23D1FB68C7
:103AF0001B681A68FB681B6842F400721A60FB6856
:103B00001B686FF480625A61FB6800221A63FB68CD
:103B1000202283F83D20FB68002283F83E20FB68CA
:103B20001B6C43F00402FB681A64FB68002283F8F4
:103B30003C20012346E07B68B3F1FF3F21D0FEF734
:103B40003DFD02463B68D31A7A689A4202D37B68ED
:103B5000002B16D1FB6800221A63FB68202283F831
:103B60003D20FB68002283F83E20FB681B6C43F07D
:103B70002002FB681A64FB68002283F83C200123C2
:103B800020E0BB681B0CDBB2012B0CD1FB681B686F
:103B90005B69DA43BB6813409BB2002B14BF01235F
:103BA0000023DBB20BE0FB681B689B69DA43BB6850
:103BB00013409BB2002B14BF01230023DBB2002B68
:103BC0008DD1002318461037BD4680BD80B584B026
:103BD00000AFF860B9607A602DE0F86800F078F81E
:103BE0000346002B01D001232DE0BB68B3F1FF3F5A
:103BF00021D0FEF7E3FC02467B68D31ABA689A42EA
:103C000002D3BB68002B16D1FB6800221A63FB6845
:103C1000202283F83D20FB68002283F83E20FB68C9
:103C20001B6C43F02002FB681A64FB68002283F8D7
:103C30003C20012307E0FB681B685B6903F08003FD
:103C4000802BCAD1002318461037BD4680BD80B5F1
:103C500084B000AFF860B9607A602DE0F86800F0D9
:103C600037F80346002B01D001232DE0BB68B3F1E8
:103C7000FF3F21D0FEF7A2FC02467B68D31ABA6848
:103C80009A4202D3BB68002B16D1FB6800221A634C
:103C9000FB68202283F83D20FB68002283F83E2049
:103CA000FB681B6C43F02002FB681A64FB6800226F
:103CB00083F83C20012307E0FB681B685B6903F085
:103CC0000403042BCAD1002318461037BD4680BD1B
:103CD00080B483B000AF78607B681B685B6903F4D5
:103CE0008063B3F5806F1BD17B681B686FF48062C3
:103CF0005A617B6800221A637B68202283F83D208A
:103D00007B68002283F83E207B681B6C43F0040232
:103D10007B681A647B68002283F83C20012300E062
:103D2000002318460C37BD4680BC704780B586B06E
:103D300000AF78607B68002B01D1012372E27B68C1
:103D40001B6803F00103002B00F08780924B5B6837
:103D500003F00C03042B0CD08F4B5B6803F00C03B7
:103D6000082B12D18C4B5B6803F48033B3F5803F92
:103D70000BD1894B1B6803F40033002B6CD07B689C
:103D80005B68002B68D101234CE27B685B68B3F56C
:103D9000803F06D1804B1B687F4A43F48033136019
:103DA0002EE07B685B68002B0CD17B4B1B687A4A4A
:103DB00023F480331360784B1B68774A23F4802305
:103DC00013601DE07B685B68B3F5A02F0CD1724BCC
:103DD0001B68714A43F4802313606F4B1B686E4A63
:103DE00043F4803313600BE06B4B1B686A4A23F487
:103DF00080331360684B1B68674A23F48023136089
:103E00007B685B68002B13D0FEF7D8FB386108E0B5
:103E1000FEF7D4FB02463B69D31A642B01D9032376
:103E200000E25D4B1B6803F40033002BF0D014E07C
:103E3000FEF7C4FB386108E0FEF7C0FB02463B69B1
:103E4000D31A642B01D90323ECE1534B1B6803F411
:103E50000033002BF0D100E000BF7B681B6803F04B
:103E60000203002B63D04C4B5B6803F00C03002B68
:103E70000BD0494B5B6803F00C03082B1CD1464B5D
:103E80005B6803F48033002B16D1434B1B6803F0AF
:103E90000203002B05D07B681B69012B01D0012395
:103EA000C0E13D4B1B6823F0F8027B685B69DB00D7
:103EB000394913430B603AE07B681B69002B20D023
:103EC000364B01221A60FEF779FB386108E0FEF7F5
:103ED00075FB02463B69D31A022B01D90323A1E1EA
:103EE0002D4B1B6803F00203002BF0D02A4B1B68FC
:103EF00023F0F8027B685B69DB00274913430B6002
:103F000015E0264B00221A60FEF758FB386108E0E6
:103F1000FEF754FB02463B69D31A022B01D9032357
:103F200080E11D4B1B6803F00203002BF0D17B687E
:103F30001B6803F00803002B3AD07B689B69002BB9
:103F400019D0174B01221A60FEF738FB386108E0E0
:103F5000FEF734FB02463B69D31A022B01D9032337
:103F600060E10D4B5B6A03F00203002BF0D00120EF
:103F700000F0D8FA1CE00A4B00221A60FEF71EFB84
:103F800038610FE0FEF71AFB02463B69D31A022B99
:103F900008D9032346E100BF00100240000042425E
:103FA00080044242924B5B6A03F00203002BE9D18A
:103FB0007B681B6803F00403002B00F0A68000233D
:103FC000FB758B4BDB6903F08053002B0DD1884BC5
:103FD000DB69874A43F08053D361854BDB6903F08B
:103FE0008053BB60BB680123FB75824B1B6803F4E5
:103FF0008073002B18D17F4B1B687E4A43F480737B
:104000001360FEF7DBFA386108E0FEF7D7FA0246E4
:104010003B69D31A642B01D9032303E1754B1B6859
:1040200003F48073002BF0D07B68DB68012B06D192
:104030006F4B1B6A6E4A43F0010313622DE07B68ED
:10404000DB68002B0CD16A4B1B6A694A23F0010321
:104050001362674B1B6A664A23F0040313621CE079
:104060007B68DB68052B0CD1614B1B6A604A43F00F
:10407000040313625E4B1B6A5D4A43F00103136243
:104080000BE05B4B1B6A5A4A23F001031362584B47
:104090001B6A574A23F0040313627B68DB68002B1A
:1040A00015D0FEF78BFA38610AE0FEF787FA024670
:1040B0003B69D31A41F28832934201D90323B1E01C
:1040C0004B4B1B6A03F00203002BEED014E0FEF70B
:1040D00075FA38610AE0FEF771FA02463B69D31AB5
:1040E00041F28832934201D903239BE0404B1B6A83
:1040F00003F00203002BEED1FB7D012B05D13C4BDD
:10410000DB693B4A23F08053D3617B68DB69002B7A
:1041100000F08780364B5B6803F00C03082B61D0FE
:104120007B68DB69022B46D1334B00221A60FEF715
:1041300045FA386108E0FEF741FA02463B69D31AB6
:10414000022B01D903236DE0294B1B6803F0007398
:10415000002BF0D17B681B6AB3F5803F08D1244B5C
:104160005B6823F400327B689B68214913434B60F2
:104170001F4B5B6823F474127B68196A7B685B6A67
:104180000B431B4913434B601B4B01221A60FEF784
:1041900015FA386108E0FEF711FA02463B69D31AB6
:1041A000022B01D903233DE0114B1B6803F0007380
:1041B000002BF0D035E0104B00221A60FEF7FEF91C
:1041C000386108E0FEF7FAF902463B69D31A022B80
:1041D00001D9032326E0064B1B6803F00073002B74
:1041E000F0D11EE07B68DB69012B07D1012319E0C8
:1041F0000010024000700040600042420B4B5B68C0
:10420000FB60FB6803F480327B681B6A9A4206D12C
:10421000FB6803F470127B685B6A9A4201D0012349
:1042200000E0002318461837BD4680BD001002404C
:1042300080B584B000AF786039607B68002B01D115
:104240000123D0E06A4B1B6803F007033A689A42E7
:1042500010D9674B1B6823F0070265493B6813437D
:104260000B60634B1B6803F007033A689A4201D066
:104270000123B8E07B681B6803F00203002B20D009
:104280007B681B6803F00403002B05D0594B5B6867
:10429000584A43F4E06353607B681B6803F00803EB
:1042A000002B05D0534B5B68524A43F46053536074
:1042B000504B5B6823F0F0027B689B684D491343C9
:1042C0004B607B681B6803F00103002B40D07B68C8
:1042D0005B68012B07D1474B1B6803F40033002BAD
:1042E00015D101237FE07B685B68022B07D1414B2E
:1042F0001B6803F00073002B09D1012373E03D4BD1
:104300001B6803F00203002B01D101236BE0394B42
:104310005B6823F003027B685B68364913434B609C
:10432000FEF74CF9F8600AE0FEF748F90246FB6830
:10433000D31A41F28832934201D9032353E02D4B23
:104340005B6803F00C027B685B689B009A42EBD1D0
:10435000274B1B6803F007033A689A4210D2244B9C
:104360001B6823F0070222493B6813430B60204B74
:104370001B6803F007033A689A4201D0012332E038
:104380007B681B6803F00403002B08D0194B5B68A3
:1043900023F4E0627B68DB68164913434B607B685B
:1043A0001B6803F00803002B09D0124B5B6823F451
:1043B00060527B681B69DB000E4913434B6000F0C1
:1043C00021F802460B4B5B681B0903F00F030A49F7
:1043D000CB5C22FA03F3094A1360094B1B681846A9
:1043E000FEF7AAF8002318461037BD4680BD00BF6F
:1043F000002002400010024000750008000000206C
:104400000400002090B48AB000AF294B3C1D0FCBB4
:1044100084E80F0040F201233B800023FB6100236E
:10442000BB6100237B6200237B6100233B62214B45
:104430005B68FB61FB6903F00C03042B02D0082BC3
:1044400003D02BE01C4B3B622BE0FB699B0C03F081
:104450000F0328333B4413F8243C7B61FB6903F4CE
:104460008033002B12D0134B5B685B0C03F001030D
:1044700028333B4413F8283CBB617B690E4A03FB9D
:1044800002F2BB69B2FBF3F37B6204E07B690B4A87
:1044900002FB03F37B627B6A3B6202E0064B3B62FA
:1044A00000BF3B6A18462837BD4690BC704700BF26
:1044B000E07200080010024000127A0000093D007E
:1044C00080B400AF024B1B681846BD4680BC7047E5
:1044D0000000002080B500AFFFF7F2FF0246054B59
:1044E0005B681B0A03F007030349CB5C22FA03F362
:1044F000184680BD001002401075000880B500AF5E
:10450000FFF7DEFF0246054B5B68DB0A03F007039B
:104510000349CB5C22FA03F3184680BD0010024029
:104520001075000880B485B000AF78600A4B1B6836
:104530000A4AA2FB03235B0A7A6802FB03F3FB60CF
:1045400000BFFB685A1EFA60002BF9D100BF00BF04
:104550001437BD4680BC704700000020D34D621068
:1045600080B586B000AF786000233B610023FB601C
:104570007B681B6803F00103002B7DD00023FB75D3
:104580004F4BDB6903F08053002B0DD14C4BDB69A3
:104590004B4A43F08053D361494BDB6903F08053AE
:1045A000BB60BB680123FB75464B1B6803F480733B
:1045B000002B18D1434B1B68424A43F480731360AD
:1045C000FDF7FCFF386108E0FDF7F8FF02463B69A4
:1045D000D31A642B01D903236DE03A4B1B6803F413
:1045E0008073002BF0D0364B1B6A03F44073FB60E2
:1045F000FB68002B2ED07B685B6803F44073FA687D
:104600009A4227D02E4B1B6A23F44073FB602E4B3B
:1046100001221A602C4B00221A60294AFB6813629F
:10462000FB6803F00103002B14D0FDF7C7FF3861CE
:104630000AE0FDF7C3FF02463B69D31A41F2883214
:10464000934201D9032336E01D4B1B6A03F002039A
:10465000002BEED01A4B1B6A23F440727B685B6818
:10466000174913430B62FB7D012B05D1144BDB690A
:10467000134A23F08053D3617B681B6803F0020365
:10468000002B08D00E4B5B6823F440427B689B688C
:104690000B4913434B607B681B6803F01003002B2E
:1046A00008D0074B5B6823F480027B68DB68044911
:1046B00013434B60002318461837BD4680BD00BF2A
:1046C00000100240007000404004424290B58DB09E
:1046D00000AF7860584B07F10C040FCB84E80F0053
:1046E00040F201233B8100237B620023FB62002315
:1046F0003B620023FB610023BB627B68102B0AD066
:104700007B68102B00F28E807B68012B49D07B6880
:10471000022B79D086E0494B5B68FB61474B1B68F5
:1047200003F08073002B7FD0FB699B0C03F00F0319
:1047300030333B4413F8243C3B62FB6903F4803381
:10474000002B17D03D4B5B685B0C03F0010330334B
:104750003B4413F8283C7B62FB6903F48033002B55
:104760000DD0374A7B6AB2FBF3F23B6A02FB03F3DC
:10477000FB6204E03B6A334A02FB03F3FB622F4B0C
:104780005B6803F48003B3F5800F02D1FB6ABB6260
:104790004AE0FB6A5B002C4AA2FB03235B08BB6276
:1047A00042E0264B1B6AFB61FB6903F44073B3F5DF
:1047B000807F08D1FB6903F00203002B03D04FF484
:1047C0000043BB621FE0FB6903F44073B3F5007F55
:1047D00009D11A4B5B6A03F00203002B03D049F6A0
:1047E0004043BB620FE0FB6903F44073B3F5407FC5
:1047F0001CD1124B1B6803F40033002B16D04FF270
:104800002443BB6212E011E0FFF778FE02460B4B37
:104810005B689B0B03F0030301335B00B2FBF3F314
:10482000BB6204E000BF02E000BF00E000BFBB6A63
:1048300018463437BD4690BDF072000800100240A3
:1048400000127A0000093D00ABAAAAAA014B186821
:10485000704700BF0C00002070B500260C4D0D4CB9
:10486000641BA410A64209D102F02CFD00260A4DBB
:104870000A4C641BA410A64205D170BD55F8043B38
:1048800098470136EEE755F8043B98470136F2E7C2
:10489000F4780008F4780008F4780008F878000844
:1048A000024B0146186800F073B800BF0C000020EE
:1048B00003460244934200D1704703F8011BF9E715
:1048C00038B50546002940D051F8043C0C1F002B98
:1048D000B8BFE41801F0DAFB1C4A136833B963600F
:1048E00014602846BDE8384001F0D6BBA34208D981
:1048F000206821188B4201BF19685B680918216084
:10490000EDE71A465B680BB1A342FAD9116850185B
:10491000A0420BD120680144501883421160E0D1BD
:1049200018685B68014411605360DAE702D90C2310
:104930002B60D6E7206821188B4201BF19685B689D
:104940000918216063605460CBE738BD8402002001
:1049500070B50E4E0C463168054611B900F0ECFCFE
:1049600030602146284600F0E7FC431C0AD0C41CF6
:1049700024F00304A04207D0211A284600F0DCFCF2
:10498000013001D14FF0FF34204670BD8802002075
:104990002DE9F041CD1C25F0030508350C2D38BF5D
:1049A0000C25002D074601DBA94205D90C23002662
:1049B0003B603046BDE8F0812E4E01F067FB336866
:1049C0001C4634BB29463846FFF7C2FF431C044649
:1049D0004DD134682646002E40D1236831463846F2
:1049E00004EB030800F0A8FC80453AD121680335A8
:1049F0006D1A25F0030508350C2D38BF0C253846F7
:104A00002946FFF7A5FF01302BD023682B442360F4
:104A10000EE02268521B1ED40B2A16D96119A3423C
:104A2000256018BF5960636808BF316062514B60F0
:104A3000384604F10B0601F02FFB26F00706231D74
:104A4000F21AB6D09B1BA350B3E76268A3420CBF17
:104A500032605A60ECE723466468B2E73446766811
:104A6000B9E70C2338463B6001F016FBA1E725604F
:104A7000DEE700BF84020020002B2DE9F0471F462F
:104A8000BBBF03F100431F4600232D2388B014460B
:104A9000129A109D1370149BDDF84CA023F020088F
:104AA000B8F1460F05D0B8F1450F00D1013502230A
:104AB00000E0032307AA049206AACDE902A2CDE9E9
:104AC000003522463B4600F0D3FCB8F1470F0646BE
:104AD00002D1119BDB0722D5B8F1460F06EB050981
:104AE00010D13378302B0AD10022002320463946DA
:104AF000FBF75AFF18B9C5F10105CAF80050DAF8FA
:104B0000003099440022002320463946FBF74CFF31
:104B100008B1CDF81C903022079B4B4507D3304697
:104B2000079B159A9B1B136008B0BDE8F087591CC2
:104B300007911A70F0E70346F7B5002903F8022B36
:104B4000B6BF2D222B224942092942702BDD0DF1DF
:104B50000704A4460A2791FBF7F60A46A64607FB78
:104B60001615632A05F13005314604F1FF340EF8BD
:104B7000015CF0DC3031AEF1020504F8011C29467D
:104B8000441C61450AD30DF10902A2EB0E026545F2
:104B900088BF00221344181A03B0F0BD11F8012B8E
:104BA00004F8012FEDE7302330318370C170031D0D
:104BB000F1E700002DE9F04F91B00C46DDF8688078
:104BC00016461F46054601F041FA03681846099348
:104BD000FBF7BEFA00230E93D8F800300A90073393
:104BE00023F0070303F1080294F81890D4F800B0FA
:104BF000C8F80020D3E90023C4E91223D4E9128ABB
:104C00002AF000430B934FF0FF3240469C4B0B9928
:104C1000FBF7FCFE70BB4FF0FF324046984B0B9900
:104C2000FBF7D6FE30BB0022002340465146FBF77F
:104C3000C5FE10B12D2384F84330924B9248B9F150
:104C4000470F94BF9846804603234FF0000A236124
:104C50002BF00403236033462146284600970FAA11
:104C600000F0D4F9013040F090804FF0FF3011B0E7
:104C7000BDE8F08F4246534640465146FBF7C6FE1C
:104C800048B1BAF1000FB8BF2D238048B8BF84F8EF
:104C900043307F4BD3E7636809F0DF015A1C42D1F0
:104CA00006236360002206920EAACDE904920DAAA3
:104CB0004BF4806303920DF13302CDE9013223609E
:104CC000636842460093284653460B91FFF7D4FE93
:104CD0000B99804647290D9908D1C81C02DB6368EF
:104CE000994240DDA9F102095FFA89F9B9F1650F2E
:104CF0001FD84A46013904F150000D91FFF71BFF00
:104D00000E9A82461318012A236102DC2268D20718
:104D100001D5013323619DF83330002B9BD02D2327
:104D200084F8433097E74729BCD1002BBAD101233F
:104D3000B7E7B9F1660F18D1002963680BDD21616F
:104D400013B92268D00702D501330B4423614FF019
:104D5000000AA165DFE713B92268D20701D5023343
:104D6000F4E70123F2E74FF067090E9B994205DB58
:104D700023682161D807EAD54B1CE7E70029CCBF9F
:104D80000122C1F102021344E0E723685A0507D467
:104D90002369424631462846B84701302BD164E7A3
:104DA000B9F1650F40F2DD80D4E912010022002341
:104DB000FBF7FAFD002833D0012331462846354A57
:104DC000B84701303FF451AFDDE90D239A4202DBD1
:104DD0002368D8070FD5DDE9092331462846B847AF
:104DE00001303FF442AF4FF0000804F11A090E9B66
:104DF000013B434509DC23689B0700F10281E06821
:104E00000F9B9842B8BF184631E701234A46314606
:104E10002846B84701303FF428AF08F10108E6E71B
:104E20000D9B002B38DC012331462846194AB84730
:104E300001303FF41AAFDDE90D23134302D123689B
:104E4000D907D8D5DDE9092331462846B8470130CE
:104E50003FF40BAF4FF0000904F11A0A0D9B5B42BF
:104E60004B4501DC0E9B94E7012352463146284610
:104E7000B84701303FF4F9AE09F10109EEE700BF90
:104E8000FFFFEF7F1C7500082075000828750008DB
:104E9000247500082C7500080E9AA36D9A42A8BFCD
:104EA0001A46002A914637DC4FF0000B29EAE979CF
:104EB00004F11A02D4F858A0AAEB09035B4533DCCD
:104EC000DDE90D239A423BDB2368DA0738D40E9BD9
:104ED0000D99A3EB0A02A3EB01099145A8BF9146E6
:104EE000B9F1000F34DC4FF0000829EAE97904F148
:104EF0001A0ADDE90D239B1AA3EB090343457FF74B
:104F00007AAF0123524631462846B84701303FF474
:104F1000ACAE08F10108ECE713463146424628469C
:104F2000B8470130C0D1A0E60123314628460B9294
:104F3000B84701303FF499AE0B9A0BF1010BB9E77A
:104F40003146DDE909232846B8470130BFD18CE658
:104F50004B463146284608EB0A02B8470130C2D119
:104F600083E60E9A012A01DCDB0737D5012342468E
:104F700031462846B84701303FF477AEDDE90923D2
:104F800031462846B84701303FF46FAED4E91201EC
:104F900000220023FBF708FDD8B90E9B08F101029F
:104FA000013B31462846B84701300ED15DE601236A
:104FB0004A4631462846B84701303FF456AE08F11C
:104FC00001080E9B013B4345F1DC534604F15002BE
:104FD000E0E64FF0000804F11A09F2E70123424627
:104FE000DFE701234A4631462846B84701303FF4FF
:104FF0003CAE08F10108E3680F995B1A4345F0DC09
:10500000FDE64FF0000804F11909F4E72DE9F04737
:10501000164699468A680B6907469342B8BF1346FD
:10502000336091F843200C46DDF820800AB101334B
:1050300033602368990642BF3368023333602568C2
:1050400015F0060506D104F1190AE36832689B1AC7
:10505000AB4228DC94F84320131E226818BF0123BA
:1050600092062DD44946384604F14302C047013028
:1050700020D02368E56803F00603042B18BF002541
:1050800032684FF00006A36808BFAD1A226908BF56
:1050900025EAE5759342C4BF9B1AED181A34B54250
:1050A0001AD1002008E00123524649463846C0473D
:1050B000013003D14FF0FF30BDE8F0870135C4E780
:1050C0003020E11881F843005A1C94F8451022441E
:1050D000023382F84310C5E7012322464946384689
:1050E000C0470130E6D00136D9E700002DE9FF477F
:1050F0000F7E9146782F80460C469A460C9D01F112
:10510000430207D8622F0AD8002F00F0D980582F09
:1051100000F0A48004F1420584F842703AE0A7F15F
:105120006303152BF6D801A151F823F0855100082F
:105130009951000815510008155100081551000833
:105140001551000899510008155100081551000823
:105150001551000815510008A7520008C951000850
:10516000895200081551000815510008C95200085D
:1051700015510008C95100081551000815510008C3
:10518000915200082B681A1D1B682A6004F1420521
:1051900084F842300123A4E020682968060601F162
:1051A00004030AD50E682B60002E03DA2D23764205
:1051B00084F843300A235E4819E00E6810F0400F6F
:1051C0002B6018BF36B2EFE72B682068191D2960E5
:1051D000010601D51E6802E04606FBD51E886F2F2A
:1051E0000CBF08230A235248002184F84310656845
:1051F000002DA8BF2168A560A4BF21F00401216093
:105200000EB9002D4DD01546B6FBF3F103FB116727
:10521000C75D05F8017D3746BB420E46F4D9082B21
:105220000BD12368DE0708D5236961689942DEBF88
:10523000302305F8013C05F1FF35521B22614B4636
:1052400021464046CDF800A003AAFFF7DFFE01305B
:105250004CD14FF0FF3004B0BDE8F087344881F8FE
:1052600045702968236851F8046B29601D0614D520
:10527000DF0744BF43F0200323601EB9236823F0F7
:10528000200323601023AFE7236843F0200323604B
:105290007823284884F84530E3E7590648BFB6B27A
:1052A000E6E71546BBE72B682668181D616928608C
:1052B00035061B6801D5196002E07006FBD5198020
:1052C000002315462361BAE72B6800211A1D2A60C6
:1052D0001D686268284600F0BDFE08B1401B606092
:1052E00063682361002384F84330A8E72A464946CF
:1052F00040462369D0470130ABD023689B0713D4C5
:10530000E068039B9842B8BF1846A4E701233246E1
:1053100049464046D04701309BD00135E3680399A8
:105320005B1AAB42F2DCEBE7002504F11906F5E766
:105330002E7500083F75000838B50023054D04465A
:1053400008462B60FCF716FB431C02D12B6803B107
:10535000236038BD8C0200202DE9F74F03690C69EA
:105360000746A342C0F28280013C00F1140501F11E
:10537000140805EB8403019358F8243055F82420D1
:1053800001339A42B2FBF3F64FEA840B08EB84092F
:1053900031D34FF0000E4046AC46F24650F8042B95
:1053A00093B206FB03E3120C4FEA134E9BB206FBCB
:1053B00002E2AAEB0303DCF800A04FEA124E1FFA48
:1053C0008AFA5344DCF800A092B2C2EB1A4202EB14
:1053D00023429BB243EA024381454FEA224A4CF8FA
:1053E000043BDBD255F80B302BB9019B043B9D42AB
:1053F0001A462FD33C61384601F0D2F8002825DB4D
:1054000028464FF0000C013658F8041BD0F800E095
:105410008BB2ACEB03031FFA8EF213440A0CC2EBFF
:105420001E4202EB23429BB243EA0243C1454FEACC
:10543000224C40F8043BE7D255F8242005EB8403C6
:1054400022B9043B9D421A460AD33C61304603B060
:10545000BDE8F08F1268043B002ACBD1013CC6E7BF
:105460001268043B002AF0D1013CEBE70020EEE794
:105470002DE9F04F16461F46446A99B00546CDE91E
:105480000467DDF8948074B91020FFF709FA02462A
:10549000686220B9EA21A84BA84801F099F9C0E94F
:1054A00001440460C4606B6A196851B15A680123F1
:1054B00093404A608B60284600F034FE00226B6AFD
:1054C0001A603B1EAFBF0023012223F00043059367
:1054D000A8BFC8F80030DDF81490994BB8BFC8F8E1
:1054E000002033EA090319D142F20F73249A1360A2
:1054F000C9F31303334300F07F85269B53B9914BC7
:1055000022E0914B03930833269A1360039819B055
:10551000BDE8F08F8B4B03930333F5E7DDE90434EB
:10552000CDE90C34DDE90C0100220023FBF73CFA45
:10553000804658B10123249A1360269B002B00F06B
:10554000588582481860431E0393DFE716AB01932A
:1055500017AB00932846DDE90C2301F0C9F8C9F325
:105560000A548346002C7FD0DDE90C010D9BA4F288
:10557000FF34C3F3130343F07F5141F44011CDF8DE
:105580004C800022724BFAF7EFFD65A3D3E90023AC
:10559000FAF7A2FF64A3D3E90023FAF7E7FD064672
:1055A00020460F46FAF72EFF61A3D3E90023FAF74E
:1055B00093FF02460B4630463946FAF7D7FD0646BA
:1055C0000F46FBF739FA002282460023304639465F
:1055D000FBF7F4F948B15046FAF714FF32463B4660
:1055E000FBF7E2F908B90AF1FF3ABAF1160F58D8F9
:1055F000DDE90C01574B03EBCA03D3E90023FBF7AA
:10560000DDF900284FD000230AF1FF3A0F93169BD3
:105610001C1B631E099349BFC4F1010300230693B9
:10562000002354BF06930993BAF1000F3DDB099B99
:10563000CDF838A05344099300230A93229B092BE9
:1056400000F28C80052BC4BF043B2293229BC8BF71
:105650000024A3F10203D8BF0124032B00F28A80A7
:10566000DFE803F02D4F4D5BDDE916431C4404F2E7
:105670003243202BC3BFC3F1400304F2124009FAA6
:1056800003F3C3F12003C6BF26FA00F0184306FA5D
:1056900003F0FAF7A7FE0123A1F1F871013C13937F
:1056A0006FE70123B2E70F90B1E7069BA3EB0A0374
:1056B0000693CAF100030A9300230E93BEE700236A
:1056C0000B93239B002B58DC4FF001094B46CDF880
:1056D0002090CDF88C900022686A4260042202F18A
:1056E00014069E4241684ED9284600F0DBFC039028
:1056F00000284CD102464FF4D571174BCCE601235C
:10570000DEE700230B93239B0AEB030909F1010356
:10571000012B0893B8BF0123DDE70123F2E700BFA7
:1057200061436F63A787D23FB3C8608B288AC63FA7
:10573000FB799F501344D33F5D75000874750008D2
:105740000000F07F59750008507500082D7500089D
:105750000000F83F68760008CF7500080124002398
:105760000B9422934FF0FF3900221223CDF82090A2
:105770002392B0E701230B93F4E7DDF88C904B46BE
:10578000CDF82090A7E7013141605200A7E76B6A8E
:10579000039A1A60089B0E2B00F2A880002C00F0E0
:1057A000A580BAF1000F34DD9A4A0AF00F0302EB2C
:1057B000C3031AF4807FD3E90034CDE910344FEAF3
:1057C0002A1416D0DDE90C01934B0327D3E90823F3
:1057D000FAF7ACFFCDE9040104F00F048E4E54B982
:1057E000DDE91023DDE90401FAF7A0FFCDE90401AA
:1057F00029E00227F2E7E10708D5DDE91001D6E943
:105800000023FAF769FECDE910010137641008366C
:10581000E5E700F0A580DDE90C01CAF100047D4B4D
:1058200004F00F0203EBC203D3E90023FAF754FE9E
:1058300002270023CDE90401774E2411002C40F00B
:105840008480002BD2D10F9B002B00F08B80DDE9F0
:105850000434CDE91034DDE9100100226F4BFBF771
:10586000ADF800287ED0089B002B7BD0B9F1000F4B
:1058700038DDDDE910010022694BFAF72DFE4C46B8
:10588000CDE904010AF1FF3801373846FAF7BAFDCD
:10589000DDE90423FAF720FE0022624BFAF766FCEA
:1058A000A1F15076CDE910011196002C5DD1DDE912
:1058B000040100225C4BFAF757FC02460B46CDE987
:1058C00004233346109AFBF797F8002840F09C8297
:1058D000DDE90401109A06F10043FBF76FF8002898
:1058E00040F09082DDE90C34CDE90434179B002BA5
:1058F000C0F25281BAF10E0F00F34E81454B03EB1B
:10590000CA03D3E90034CDE90634239B002B80F28F
:10591000DB80089B002B00F3D78040F07282DDE92A
:1059200006010022404BFAF7D7FDDDE90423FBF71F
:1059300059F8089C2646002840F048823123039FEE
:105940000AF1010A07F8013B44E2E20705D5D6E96E
:105950000023FAF7C1FD01230137641008366DE713
:10596000022770E7D046089C8FE70399294B214412
:1059700012910B9903EBC403DDE9106753E902238D
:10598000002955D000202949FAF7D0FE3B4632467F
:10599000FAF7EAFBCDE91001039FDDE90401FBF70B
:1059A0004BF80446FAF72EFD02460B46DDE90401EA
:1059B000FAF7DAFB02460B463034CDE90423DDE981
:1059C000102307F8014BFAF7F9FF002874D1DDE93D
:1059D000042300201149FAF7C7FBDDE91023FAF789
:1059E000EDFF002840F0B780129B9F423FF47AAF52
:1059F000DDE9100100220A4BFAF76EFD0022CDE925
:105A00001001DDE90401064BFAF766FDCDE904015A
:105A1000C3E700BF68760008407600080000F03F4A
:105A20000000244000001C40000014400000E03F43
:105A300030463946FAF750FD129BCDE91001039C20
:105A40001493DDE90401FAF7F7FF1590FAF7DAFC91
:105A500002460B46DDE90401FAF786FB159B064674
:105A6000303304F8013B129B0F469C424FF000027A
:105A700024D1DDE91001B04BFAF778FB02460B4662
:105A800030463946FAF7B8FF002863D1DDE9102324
:105A90000020A949FAF768FB02460B463046394612
:105AA000FAF78CFF00283FF41DAF149F7B1E149360
:105AB00017F8013C302BF8D0C2463BE09F4BFAF779
:105AC0000BFDCDE90401BCE7039FDDE90489DDE9B5
:105AD000062340464946FAF729FEFAF7ADFF044689
