:020000040800F2
:1000000000500020191D0008051400080B140008FA
:1000100011140008171400081D1400080000000047
:100020000000000000000000000000002314000891
:100030002F140008000000003B14000847140008BB
:10004000611D0008611D0008611D0008611D000898
:10005000611D0008611D0008611D0008611D000888
:10006000611D0008611D0008611D0008611D000878
:10007000611D0008611D0008611D0008611D000868
:10008000611D0008611D0008611D0008611D000858
:10009000611D0008611D0008611D0008611D000848
:1000A000611D0008611D0008611D0008611D000838
:1000B000611D0008611D0008611D0008611D000828
:1000C000611D0008611D0008611D0008611D000818
:1000D000611D0008611D0008611D0008611D000808
:1000E000611D0008611D0008611D0008000000007E
:1000F0000000000000000000000000000000000000
:0C01000000000000000000005FF808F1A3
:1001100010B5054C237833B9044B13B10448AFF341
:1001200000800123237010BDDC01002000000000CE
:10013000EC5D000808B5034B1BB103490348AFF35E
:10014000008008BD00000000E0010020EC5D000818
:10015000034613F8012B002AFBD1181A0138704707
:1001600081F0004102E000BF83F0004330B54FEA68
:1001700041044FEA430594EA050F08BF90EA020FD5
:100180001FBF54EA000C55EA020C7FEA645C7FEA68
:10019000655C00F0E2804FEA5454D4EB5555B8BF8B
:1001A0006D420CDD2C4480EA020281EA030382EAFC
:1001B000000083EA010180EA020281EA0303362D8E
:1001C00088BF30BD11F0004F4FEA01314FF4801C61
:1001D0004CEA113102D0404261EB410113F0004F73
:1001E0004FEA03334CEA133302D0524263EB43032A
:1001F00094EA050F00F0A780A4F10104D5F1200EC8
:100200000DDB02FA0EFC22FA05F2801841F1000122
:1002100003FA0EF2801843FA05F359410EE0A5F1F6
:1002200020050EF1200E012A03FA0EFC28BF4CF027
:10023000020C43FA05F3C01851EBE37101F00045DD
:1002400007D54FF0000EDCF1000C7EEB00006EEBEA
:100250000101B1F5801F1BD3B1F5001F0CD3490874
:100260005FEA30004FEA3C0C04F101044FEA4452CB
:1002700012F5800F80F09A80BCF1004F08BF5FEA52
:10028000500C50F1000041EB045141EA050130BD32
:100290005FEA4C0C404141EB0101013C28BFB1F544
:1002A000801FE9D291F0000F04BF01460020B1FA8F
:1002B00081F308BF2033A3F10B03B3F120020CDA62
:1002C0000C3208DD02F1140CC2F10C0201FA0CF040
:1002D00021FA02F10CE002F11402D8BFC2F1200CA5
:1002E00001FA02F120FA0CFCDCBF41EA0C0190405B
:1002F000E41AA2BF01EB0451294330BD6FEA0404A4
:100300001F3C1CDA0C340EDC04F11404C4F120028E
:1003100020FA04F001FA02F340EA030021FA04F3A0
:1003200045EA030130BDC4F10C04C4F1200220FAF7
:1003300002F001FA04F340EA0300294630BD21FA35
:1003400004F0294630BD94F0000F83F4801306BFFB
:1003500081F480110134013D4EE77FEA645C18BFEF
:100360007FEA655C29D094EA050F08BF90EA020F86
:1003700005D054EA000C04BF1946104630BD91EA7E
:10038000030F1EBF0021002030BD5FEA545C05D181
:100390004000494128BF41F0004130BD14F58004C0
:1003A0003CBF01F5801130BD01F0004545F0FE4134
:1003B00041F470014FF0000030BD7FEA645C1ABF69
:1003C000194610467FEA655C1CBF0B46024650EAA0
:1003D000013406BF52EA033591EA030F41F40021CC
:1003E00030BD00BF90F0000F04BF0021704730B552
:1003F0004FF4806404F132044FF000054FF0000127
:1004000050E700BF90F0000F04BF0021704730B5E7
:100410004FF4806404F1320410F0004548BF4042BC
:100420004FF000013EE700BF42004FEAE2014FEA11
:1004300031014FEA02701FBF12F07F4393F07F4FEC
:1004400081F06051704732F07F4208BF704793F0EF
:100450007F4F04BF41F40021704730B54FF4607402
:1004600001F0004521F000411CE700BF50EA010205
:1004700008BF704730B54FF000050AE050EA0102AE
:1004800008BF704730B511F0004502D5404261EB1E
:1004900041014FF4806404F132045FEA915C3FF45F
:1004A000D8AE4FF003025FEADC0C18BF03325FEAFC
:1004B000DC0C18BF033202EBDC02C2F1200300FAAD
:1004C00003FC20FA02F001FA03FE40EA0E0021FAD2
:1004D00002F11444BDE600BF70B54FF0FF0C4CF4C0
:1004E000E06C1CEA11541DBF1CEA135594EA0C0F72
:1004F00095EA0C0F00F0DEF82C4481EA030621EAAD
:100500004C5123EA4C5350EA013518BF52EA0335E7
:1005100041F4801143F4801338D0A0FB02CE4FF099
:100520000005E1FB02E506F00042E0FB03E54FF0C9
:100530000006E1FB03569CF0000F18BF4EF0010EC1
:10054000A4F1FF04B6F5007F64F5407404D25FEABD
:100550004E0E6D4146EB060642EAC62141EA555170
:100560004FEAC52040EA5E504FEACE2EB4F1FD0CB2
:1005700088BFBCF5E06F1ED8BEF1004F08BF5FEA30
:10058000500E50F1000041EB045170BD06F00046E2
:1005900046EA010140EA020081EA0301B4EB5C048F
:1005A000C2BFD4EB0C0541EA045170BD41F4801187
:1005B0004FF0000E013C00F3AB8014F1360FDEBFAC
:1005C000002001F0004170BDC4F10004203C35DA88
:1005D0000C341BDC04F11404C4F1200500FA05F30B
:1005E00020FA04F001FA05F240EA020001F00042AC
:1005F00021F0004110EBD37021FA04F642EB060122
:100600005EEA430E08BF20EAD37070BDC4F10C044B
:10061000C4F1200500FA04F320FA05F001FA04F20F
:1006200040EA020001F0004110EBD37041F10001FB
:100630005EEA430E08BF20EAD37070BDC4F1200506
:1006400000FA05F24EEA020E20FA04F301FA05F26E
:1006500043EA020321FA04F001F0004121FA04F216
:1006600020EA020000EBD3705EEA430E08BF20EAE6
:10067000D37070BD94F0000F0FD101F00046400020
:1006800041EB010111F4801F08BF013CF7D041EAA2
:10069000060195F0000F18BF704703F000465200A6
:1006A00043EB030313F4801F08BF013DF7D043EA77
:1006B0000603704794EA0C0F0CEA135518BF95EA2D
:1006C0000C0F0CD050EA410618BF52EA4306D1D1B4
:1006D00081EA030101F000414FF0000070BD50EAD3
:1006E000410606BF1046194652EA430619D094EA5D
:1006F0000C0F02D150EA013613D195EA0C0F05D147
:1007000052EA03361CBF104619460AD181EA03019A
:1007100001F0004141F0FE4141F470014FF0000052
:1007200070BD41F0FE4141F4780170BD70B54FF0ED
:10073000FF0C4CF4E06C1CEA11541DBF1CEA13556D
:1007400094EA0C0F95EA0C0F00F0A7F8A4EB05044F
:1007500081EA030E52EA03354FEA013100F0888046
:100760004FEA03334FF0805545EA131343EA12630F
:100770004FEA022245EA111545EA10654FEA0026C4
:100780000EF000419D4208BF964244F1FD0404F57D
:10079000407402D25B084FEA3202B61A65EB0305D9
:1007A0005B084FEA32024FF480104FF4002CB6EB96
:1007B000020E75EB030E22BFB61A754640EA0C0016
:1007C0005B084FEA3202B6EB020E75EB030E22BF56
:1007D000B61A754640EA5C005B084FEA3202B6EB97
:1007E000020E75EB030E22BFB61A754640EA9C0056
:1007F0005B084FEA3202B6EB020E75EB030E22BF26
:10080000B61A754640EADC0055EA060E18D04FEAE3
:10081000051545EA16754FEA06164FEAC30343EA83
:1008200052734FEAC2025FEA1C1CC0D111F4801F50
:100830000BD141EA00014FF000004FF0004CB6E749
:1008400011F4801F04BF01430020B4F1FD0C88BFE8
:10085000BCF5E06F3FF6AFAEB5EB030C04BFB6EBF3
:10086000020C5FEA500C50F1000041EB045170BDE6
:100870000EF0004E4EEA113114EB5C04C2BFD4EB13
:100880000C0541EA045170BD41F480114FF0000E97
:10089000013C90E645EA060E8DE60CEA135594EA13
:1008A0000C0F08BF95EA0C0F3FF43BAF94EA0C0F16
:1008B0000AD150EA01347FF434AF95EA0C0F7FF48B
:1008C00025AF104619462CE795EA0C0F06D152EADF
:1008D00003353FF4FDAE1046194622E750EA4106C3
:1008E00018BF52EA43067FF4C5AE50EA41047FF4D4
:1008F0000DAF52EA43057FF4EBAE12E74FF0FF3C39
:1009000006E000BF4FF0010C02E000BF4FF0010C09
:100910004DF804CD4FEA410C7FEA6C5C4FEA430C82
:1009200018BF7FEA6C5C1BD001B050EA410C0CBFD1
:1009300052EA430C91EA030F02BF90EA020F002033
:10094000704710F1000F91EA030F58BF994208BF9A
:1009500090422CBFD8176FEAE37040F00100704757
:100960004FEA410C7FEA6C5C02D150EA013C07D1AE
:100970004FEA430C7FEA6C5CD6D152EA033CD3D0F9
:100980005DF8040B704700BF8446104662468C46F3
:100990001946634600E000BF01B5FFF7B7FF002826
:1009A00048BF10F1000F01BD4DF808EDFFF7F4FF4F
:1009B0000CBF012000205DF808FB00BF4DF808EDDA
:1009C000FFF7EAFF34BF012000205DF808FB00BFFD
:1009D0004DF808EDFFF7E0FF94BF012000205DF81F
:1009E00008FB00BF4DF808EDFFF7CEFF94BF0120D4
:1009F00000205DF808FB00BF4DF808EDFFF7C4FFCD
:100A000034BF012000205DF808FB00BF4FEA410C15
:100A10007FEA6C5C02D150EA013C0AD14FEA430CF8
:100A20007FEA6C5C02D152EA033C02D14FF0000035
:100A300070474FF0010070474FEA410212F5001273
:100A400015D211D56FF47873B3EB625212D94FEA15
:100A5000C12343F0004343EA505311F0004F23FAFF
:100A600002F018BF404270474FF00000704750EA54
:100A7000013005D111F0004008BF6FF00040704711
:100A80004FF00000704700BF80F0004002E000BF60
:100A900081F0004142001FBF5FEA410392EA030F69
:100AA0007FEA226C7FEA236C6AD04FEA1262D2EBB3
:100AB0001363C1BFD218414048404140B8BF5B42B8
:100AC000192B88BF704710F0004F40F4000020F051
:100AD0007F4018BF404211F0004F41F4000121F067
:100AE0007F4118BF494292EA030F3FD0A2F10102B1
:100AF00041FA03FC10EB0C00C3F1200301FA03F1EF
:100B000000F0004302D5494260EB4000B0F5000F11
:100B100013D3B0F1807F06D340084FEA310102F1D0
:100B20000102FE2A51D2B1F1004F40EBC25008BF82
:100B300020F0010040EA03007047490040EB00004C
:100B4000013A28BFB0F5000FEDD2B0FA80FCACF14D
:100B5000080CB2EB0C0200FA0CF0AABF00EBC2507A
:100B600052421843BCBFD0401843704792F0000F68
:100B700081F4000106BF80F400000132013BB5E7BB
:100B80004FEA41037FEA226C18BF7FEA236C21D031
:100B900092EA030F04D092F0000F08BF0846704796
:100BA00090EA010F1CBF0020704712F07F4F04D164
:100BB000400028BF40F00040704712F100723CBF77
:100BC00000F50000704700F0004343F0FE4040F4A1
:100BD000000070477FEA226216BF08467FEA23635F
:100BE0000146420206BF5FEA412390EA010F40F44A
:100BF000800070474FF0000304E000BF10F0004396
:100C000048BF40425FEA000C08BF704743F096437C
:100C100001464FF000001CE050EA010208BF704797
:100C20004FF000030AE000BF50EA010208BF70471E
:100C300011F0004302D5404261EB41015FEA010C33
:100C400002BF84460146002043F0B64308BFA3F12B
:100C50008053A3F50003BCFA8CF2083AA3EBC2530D
:100C600010DB01FA02FC634400FA02FCC2F120022C
:100C7000BCF1004F20FA02F243EB020008BF20F063
:100C80000100704702F1200201FA02FCC2F12002C9
:100C900050EA4C0021FA02F243EB020008BF20EABE
:100CA000DC7070474FF0FF0C1CEAD0521EBF1CEAEC
:100CB000D15392EA0C0F93EA0C0F6FD01A4480EADA
:100CC000010C400218BF5FEA41211ED04FF00063C3
:100CD00043EA501043EA5111A0FB01310CF00040EF
:100CE000B1F5000F3EBF490041EAD3715B0040EA15
:100CF000010062F17F02FD2A1DD8B3F1004F40EBE5
:100D0000C25008BF20F00100704790F0000F0CF0B7
:100D1000004C08BF49024CEA502040EA51207F3A7B
:100D2000C2BFD2F1FF0340EAC250704740F4000056
:100D30004FF00003013A5DDC12F1190FDCBF00F047
:100D400000407047C2F10002410021FA02F1C2F1F5
:100D5000200200FA02FC5FEA310040F1000053EA91
:100D60004C0308BF20EADC70704792F0000F00F0DF
:100D7000004C02BF400010F4000F013AF9D040EAE5
:100D80000C0093F0000F01F0004C02BF490011F479
:100D9000000F013BF9D041EA0C018FE70CEAD15377
:100DA00092EA0C0F18BF93EA0C0F0AD030F0004CF7
:100DB00018BF31F0004CD8D180EA010000F00040AB
:100DC000704790F0000F17BF90F0004F084691F069
:100DD000000F91F0004F14D092EA0C0F01D14202A3
:100DE0000FD193EA0C0F03D14B0218BF084608D16C
:100DF00080EA010000F0004040F0FE4040F40000B6
:100E0000704740F0FE4040F4400070474FF0FF0C48
:100E10001CEAD0521EBF1CEAD15392EA0C0F93EA8F
:100E20000C0F69D0A2EB030280EA010C49024FEAE1
:100E3000402037D04FF0805343EA111143EA10139A
:100E40000CF000408B4238BF5B0042F17D024FF452
:100E5000000C8B4224BF5B1A40EA0C00B3EB510F2D
:100E600024BFA3EB510340EA5C00B3EB910F24BF16
:100E7000A3EB910340EA9C00B3EBD10F24BFA3EB9B
:100E8000D10340EADC001B0118BF5FEA1C1CE0D163
:100E9000FD2A3FF650AF8B4240EBC25008BF20F016
:100EA000010070470CF0004C4CEA50207F32C2BF6A
:100EB000D2F1FF0340EAC250704740F400004FF007
:100EC0000003013A37E792F0000F00F0004C02BF38
:100ED000400010F4000F013AF9D040EA0C0093F002
:100EE000000F01F0004C02BF490011F4000F013B5C
:100EF000F9D041EA0C0195E70CEAD15392EA0C0FC4
:100F000008D142027FF47DAF93EA0C0F7FF470AFFB
:100F1000084676E793EA0C0F04D14B023FF44CAF3E
:100F200008466EE730F0004C18BF31F0004CCAD1D3
:100F300030F000427FF45CAF31F000437FF43CAF0F
:100F40005FE700BF42000ED2B2F1FE4F0BD34FF06D
:100F50009E03B3EB126209D44FEA002343F000432F
:100F600023FA02F070474FF00000704712F1610F52
:100F700001D1420202D14FF0FF3070474FF0000024
:100F8000704700BF80B485B000AF1A4B9B69194A07
:100F900043F010039361174B9B6903F01003FB6050
:100FA000FB68144B9B69134A43F020039361114B78
:100FB0009B6903F02003BB60BB680E4B9B690D4A25
:100FC00043F0080393610B4B9B6903F008037B60BC
:100FD0007B68084B9B69074A43F004039361054B08
:100FE0009B6903F004033B603B6800BF1437BD46B8
:100FF00080BC70470010024080B500AF124B134A0E
:101000001A60114B124A5A600F4B00229A600E4B25
:101010000022DA600C4B4FF480421A610A4B002226
:101020005A61094B00229A61074B0022DA61064B94
:1010300000221A62044801F083F90346002B01D014
:1010400000F0A9F900BF80BD040200200058004054
:10105000801A060080B588B000AF786007F11003F1
:1010600000221A605A609A60DA607B681B68164A30
:10107000934224D1154B9B69144A43F008039361B2
:10108000124B9B6903F00803FB60FB684FF440635D
:101090003B6112237B610323FB6107F110031946B7
:1010A0000B4800F0C9FF094BDB69084A43F4800391
:1010B000D361064BDB6903F48003BB60BB6800BFF0
:1010C0002037BD4680BD00BF0058004000100240E0
:1010D000000C014080B5CEB002AF00F043FE00F03E
:1010E000BBF8FFF74FFFFFF787FF7821584800F064
:1010F000EBFAC7F828010021002000F0E5FAC7F854
:101100002401D7F8280100F011FBD7F8280100F0DE
:101110006BFBFF21D7F8280100F014FBD7F828015A
:1011200000F06EFBD7F8280100F01FFB012387F8C1
:1011300023311F2387F822310023A7F820313B46B3
:10114000444A184611464FF490731A4602F07AF951
:101150003F2387F82F31032387F82E31022387F8A6
:101160002D31032387F82C314FF47A7000F05CFEA8
:10117000D7F8280100F0F9FAD7F8240100F024FB91
:1011800097F82E2197F82F311946D7F8240100F04F
:10119000A8F87F2300933F2300223F21D7F82401A2
:1011A00000F08EFC7F230093402300224021D7F8DB
:1011B000240100F085FCD7F82411D7F8280100F0AD
:1011C0002FFB0A2000F030FE97F82D2197F82F31E1
:1011D000134487F82F3197F82C2197F82E311344B8
:1011E00087F82E3197F82F317C2B08D97D2387F88B
:1011F0002F3197F82D315B42DBB287F82D3197F80C
:101200002F31022B08D8022387F82F3197F82D3180
:101210005B42DBB287F82D3197F82E313C2B08D991
:101220003D2387F82E3197F82C315B42DBB287F8EB
:101230002C3197F82E31022B9ED8022387F82E31BD
:1012400097F82C315B42DBB287F82C3194E700BF72
:1012500004020020085E000880B590B000AF07F1DE
:10126000180328220021184602F0FAF83B1D00223C
:101270001A605A609A60DA601A610123BB614FF408
:101280008033FB6100233B620123BB6202237B634B
:101290004FF48033BB634FF4E013FB6307F1180393
:1012A000184601F097FC0346002B01D000F073F8BC
:1012B0000F237B600223BB600023FB604FF480633D
:1012C0003B6100237B613B1D0221184601F002FFB8
:1012D0000346002B01D000F05EF800BF4037BD464A
:1012E00080BD80B582B000AF78600B46FB701346BE
:1012F000BB70FB78013BD9B2BB78013BDBB21A462D
:10130000786800F024FBFB78013BDBB2BA78194621
:10131000786800F01CFBFB78013BD9B2BB78013345
:10132000DBB21A46786800F012FBBB78013BDAB2F8
:10133000FB781946786800F00AFBBA78FB78194602
:10134000786800F004FBBB780133DAB2FB78194609
:10135000786800F0FCFAFB780133D9B2BB78013B26
:10136000DBB21A46786800F0F2FAFB780133DBB2A0
:10137000BA781946786800F0EAFAFB780133D9B2F6
:10138000BB780133DBB21A46786800F0E0FA00BFA0
:101390000837BD4680BD80B400AF72B600BFFEE71F
:1013A00080B485B000AF154B9B69144A43F001032C
:1013B0009361124B9B6903F00103BB60BB680F4B49
:1013C000DB690E4A43F08053D3610C4BDB6903F0B9
:1013D00080537B607B680A4B5B68FB60FB6823F093
:1013E000E063FB60FB6843F00073FB60044AFB684A
:1013F000536000BF1437BD4680BC704700100240E8
:101400000000014080B400AFFEE780B400AFFEE70B
:1014100080B400AFFEE780B400AFFEE780B400AF59
:10142000FEE780B400AF00BFBD4680BC704780B40B
:1014300000AF00BFBD4680BC704780B400AF00BFA6
:10144000BD4680BC704780B500AF00F0D1FC00BF46
:1014500080BD80B400AF01231846BD4680BC7047F4
:1014600080B582B000AF7860396001F0B9FF034603
:1014700016221A604FF0FF3318460837BD4680BD6C
:1014800080B582B000AF78604FF0FF317868FFF729
:10149000E7FFFEE780B586B000AFF860B9607A601C
:1014A00000237B610AE0AFF300800146BB685A1C51
:1014B000BA60CAB21A707B6901337B617A697B6852
:1014C0009A42F0DB7B6818461837BD4680BD80B570
:1014D00086B000AFF860B9607A6000237B6109E0F4
:1014E000BB685A1CBA601B781846AFF300807B6952
:1014F00001337B617A697B689A42F1DB7B6818462D
:101500001837BD4680BD80B483B000AF78604FF01F
:10151000FF3318460C37BD4680BC704780B483B09B
:1015200000AF786039603B684FF400525A60002386
:1015300018460C37BD4680BC704780B483B000AFFE
:101540007860012318460C37BD4680BC704780B4D4
:1015500085B000AFF860B9607A6000231846143790
:10156000BD4680BC7047000080B586B000AF786093
:10157000144A154BD31A7B617B693B61134B1B6883
:10158000002B02D1114B124A1A60104B1A687B686B
:1015900013443A699A4207D201F022FF03460C2213
:1015A0001A604FF0FF3309E0084B1B68FB60074BE4
:1015B0001A687B681344054A1360FB68184618379D
:1015C000BD4680BD0050002000040000F80100204E
:1015D0007002002080B400AF00BFBD4680BC7047E1
:1015E00080B586B002AF78600B46FB707B681B68E5
:1015F000002B12D000233B73FB787B737B68186849
:101600007B681B7999B207F10C024FF0FF3300930E
:10161000022300F0D9FF0346FB7300BF1037BD461D
:1016200080BD80B586B002AF78600B46FB707B68EA
:101630001B68002B12D040233B73FB787B737B68C5
:1016400018687B681B7999B207F10C024FF0FF33E1
:101650000093022300F0B8FF0346FB7300BF10376E
:10166000BD4680BD80B483B000AF03460A46FB711F
:101670001346BB71BB799BB2DB019AB2FB799BB27B
:1016800013449BB218460C37BD4680BC704780B4EB
:1016900083B000AF0346FB80FB88DBB203F07F031F
:1016A000DBB218460C37BD4680BC704780B483B0AF
:1016B00000AF0346FB80FB88DB099BB2DBB2184618
:1016C0000C37BD4680BC704780B584B000AF7860F1
:1016D0000B46FB700C2001F0ADFE0346FB60FB687F
:1016E000FA781A71FB687A681A604FF4806001F02A
:1016F000A1FE03461A46FB689A60FB689B684FF49C
:1017000080620021184601F0ABFEFB6818461037D6
:10171000BD4680BD80B582B000AF7860AF217868EB
:10172000FFF75EFF00BF0837BD4680BD80B582B0C1
:1017300000AF7860AE217868FFF752FF00BF08372E
:10174000BD4680BD80B582B000AF78600B46FB70AF
:1017500081217868FFF744FFFB7819467868FFF726
:101760003FFF00BF0837BD4680BD80B584B000AFE5
:1017700078607868FFF7DAFF0023FB731AE0FB7BE1
:101780001946786800F0B8F80023BB730BE0BB7B08
:101790001946786800F08DF800217868FFF741FF5E
:1017A000BB7B0133BB7397F90E30002BEFDAFB7B69
:1017B0000133FB73FB7B072BE1D97868FFF7AAFFA6
:1017C00000BF1037BD4680BD80B582B000AF7860E5
:1017D0007B689B684FF480620021184601F040FE50
:1017E00000BF0837BD4680BD80B582B000AF7860CD
:1017F000A6217868FFF7F4FE00BF0837BD4680BD1C
:1018000080B582B000AF7860D5217868FFF7E8FE38
:1018100000217868FFF7E4FE00BF0837BD4680BDB1
:1018200080B584B000AF7860396000237B730023FB
:101830003B730023FB8133E07B689A68FB89134488
:101840001A783B689968FB890B441B789A4224D02C
:10185000FB891846FFF71BFF03463B73FB891846BD
:10186000FFF724FF03467B737A7B3B7B194678683E
:1018700000F057F83B689A68FB891A447B689968BE
:10188000FB890B4412781A707B689A68FB891344B1
:101890001B7819467868FFF7C4FEFB890133FB818A
:1018A000FB89B3F5806FC7D300BF00BF1037BD46BB
:1018B00080BD80B582B000AF78600B46FB7097F9B1
:1018C0000330002B14DBFB780233FB70FB781B0921
:1018D000DBB243F01003DBB219467868FFF780FEF5
:1018E000FB7803F00F03DBB219467868FFF778FE48
:1018F00000BF0837BD4680BD80B582B000AF7860BC
:101900000B46FB70FB78072B07D8FB7863F04F037F
:10191000DBB219467868FFF763FE00BF0837BD46A3
:1019200080BD80B582B000AF78600B46FB70134677
:10193000BB70BB7819467868FFF7DEFFFB78194665
:101940007868FFF7B6FF00BF0837BD4680BD80B599
:1019500084B000AF78600B46FB701346BB7097F9FC
:101960000330002B4ADBBB783F2B47D8BB78DB0822
:10197000FB73FA7BFB7811461846FFF773FE0346AC
:10198000BB81BB7803F00703FB727B689A68BB8955
:1019900013441B7819467B689A68BB8913441B78EB
:1019A0001846FB7A012202FA03F30343994225D039
:1019B0007B689A68BB8913441B785AB2FB7A012171
:1019C00001FA03F35BB2134359B27B689A68BB898F
:1019D0001344CAB21A70FB7819467868FFF769FF9A
:1019E000FB7B19467868FFF787FF7B689A68BB899D
:1019F00013441B7819467868FFF713FE00BF1037B1
:101A0000BD4680BD80B584B000AF78600B46FB70EA
:101A10001346BB7097F90330002B4DDBBB783F2B8F
:101A20004AD8BB78DB08FB73FA7BFB781146184673
:101A3000FFF718FE0346BB81BB7803F00703FB7278
:101A40007B689A68BB8913441B7819467B689A683F
:101A5000BB8913441B781846FB7A012202FA03F370
:101A6000DB430340994227D07B689A68BB891344C3
:101A70001B785AB2FB7A012101FA03F35BB2DB4314
:101A80005BB2134059B27B689A68BB891344CAB2EF
:101A90001A70FB7819467868FFF70BFFFB7B194635
:101AA0007868FFF729FF7B689A68BB8913441B7825
:101AB00019467868FFF7B5FD00BF1037BD4680BDF9
:101AC00090B589B000AF7860084611461A460346C3
:101AD000FB700B46BB7013467B70FA787B789A429A
:101AE0000BD1BA7897F830309A4206D1BA78FB78A1
:101AF00019467868FFF72BFF0BE10123FB777A7813
:101B0000FB78D31ADBB2BB7797F91E30002B02DAD1
:101B10004FF0FF3300E001237B7797F83020BB784C
:101B2000D31ADBB23B7797F91C30002B02DA4FF067
:101B3000FF3300E00123FB7697F91C30002BB8BF80
:101B40005B42DAB297F91E30002BB8BF5B42DBB2C2
:101B50009A426BD297F91C301846FFF74FF80446AB
:101B600097F91E301846FFF749F8034619462046F4
:101B7000FFF74CF90346FB60BB781846FFF73EF8C9
:101B80000446FB781846FFF739F80346F96818460B
:101B9000FFF788F8034619462046FEF779FF03460B
:101BA000BB603EE097F91F30002B1BD0FB78184636
:101BB000FFF724F80346F9681846FFF773F8034661
:101BC000B9681846FEF766FF03461846FFF7BAF9EC
:101BD0000346DAB2FB7819467868FFF7B8FE0023AF
:101BE000FB771AE0FB781846FFF708F80346F96818
:101BF0001846FFF757F80346B9681846FEF74AFF3C
:101C000003461846FFF79EF90346DAB2FB781946F9
:101C10007868FFF7F7FE0123FB777A7FFB781344A0
:101C2000FB70FA787B789A42BCD16BE097F91E3052
:101C30001846FEF7E3FF044697F91C301846FEF7F6
:101C4000DDFF034619462046FFF7E0F803467B61B7
:101C5000FB781846FEF7D2FF0446BB781846FEF71D
:101C6000CDFF034679691846FFF71CF8034619466D
:101C70002046FEF70DFF03463B613EE097F91F301B
:101C8000002B1BD0BB781846FEF7B8FF03467969D6
:101C90001846FFF707F8034639691846FEF7FAFEBB
:101CA00003461846FFF74EF90346DBB2BA781946E9
:101CB0007868FFF74CFE0023FB771AE0BB781846E4
:101CC000FEF79CFF034679691846FEF7EBFF0346D3
:101CD00039691846FEF7DEFE03461846FFF732F96B
:101CE0000346DBB2BA7819467868FFF78BFE01230A
:101CF000FB77FA7EBB781344BB70BA7897F8303024
:101D00009A42BBD197F830207B7819467868FFF764
:101D10001EFE2437BD4690BD002103E00B4B5B58EF
:101D2000435004310A480B4B42189A42F6D30A4AF0
:101D300002E0002342F8043B084B9A42F9D3FFF734
:101D400049FC01F053FBFFF7C5F970473C630008FD
:101D500000000020DC010020DC0100206C020020DB
:101D6000FEE7000080B500AF084B1B68074A43F050
:101D700010031360032000F02BF9002000F008F896
:101D8000FFF70EFB0023184680BD00BF0020024075
:101D900080B582B000AF7860124B1A68124B1B7886
:101DA00019464FF47A73B3FBF1F3B2FBF3F3184621
:101DB00000F035F90346002B01D001230EE07B68CB
:101DC0000F2B0AD8002279684FF0FF3000F00BF992
:101DD000064A7B681360002300E001231846083799
:101DE000BD4680BD00000020080000200400002047
:101DF00080B400AF054B1B781A46054B1B68134493
:101E0000034A136000BFBD4680BC70470800002035
:101E10005802002080B400AF024B1B681846BD4634
:101E200080BC70475802002080B584B000AF786055
:101E3000FFF7F0FFB8607B68FB60FB68B3F1FF3F22
:101E400005D00A4B1B781A46FB681344FB6000BFA1
:101E5000FFF7E0FF0246BB68D31AFA689A42F7D848
:101E600000BF00BF1037BD4680BD00BF0800002086
:101E700080B485B000AF78607B6803F00703FB6037
:101E80000C4BDB68BB60BA684FF6FF031340BB60C6
:101E9000FB681A02BB68134343F0BF6343F400338B
:101EA000BB60044ABB68D36000BF1437BD4680BC2A
:101EB000704700BF00ED00E080B400AF044BDB686A
:101EC0001B0A03F007031846BD4680BC704700BFDD
:101ED00000ED00E080B483B000AF03463960FB71D1
:101EE00097F90730002B0ADB3B68DAB20C4997F907
:101EF00007301201D2B20B4483F800230AE03B689A
:101F0000DAB20849FB7903F00F03043B1201D2B2A5
:101F10000B441A7600BF0C37BD4680BC704700BF2B
:101F200000E100E000ED00E080B489B000AFF860AF
:101F3000B9607A60FB6803F00703FB61FB69C3F1DA
:101F40000703042B28BF0423BB61FB690433062B62
:101F500002D9FB69033B00E000237B614FF0FF32B5
:101F6000BB6902FA03F3DA43BB681A407B699A4003
:101F70004FF0FF317B6901FA03F3D9437B680B40D3
:101F8000134318462437BD4680BC704780B582B0E5
:101F900000AF78607B68013BB3F1807F01D3012300
:101FA0000FE00A4A7B68013B53600F214FF0FF307E
:101FB000FFF790FF054B00229A60044B07221A603E
:101FC000002318460837BD4680BD00BF10E000E082
:101FD00080B582B000AF78607868FFF749FF00BF36
:101FE0000837BD4680BD80B586B000AF0346B960F6
:101FF0007A60FB7300237B61FFF75EFF78617A688C
:10200000B9687869FFF790FF024697F90F301146DB
:102010001846FFF75FFF00BF1837BD4680BD80B58B
:1020200082B000AF78607868FFF7B0FF03461846CB
:102030000837BD4680BD000080B48BB000AF78602B
:10204000396000237B6200233B6269E101227B6AE5
:1020500002FA03F3FB613B681B68FA691340BB613A
:10206000BA69FB699A4240F058813B685B689A4ABA
:1020700093425ED0984A934275D8984A934258D07A
:10208000964A93426FD8964A934252D0944A9342CA
:1020900069D8944A93424CD0924A934263D8924A68
:1020A000934246D0904A93425DD8122B2AD8122BE5
:1020B00059D801A252F823F0332100080D2100085D
:1020C0001F2100086121000867210008672100081E
:1020D00067210008672100086721000867210008C0
:1020E00067210008672100086721000867210008B0
:1020F00067210008672100086721000815210008F2
:1021000029210008794A934213D02CE03B68DB6810
:102110003B6229E03B68DB6804333B6224E03B68B8
:10212000DB6808333B621FE03B68DB680C333B62D3
:102130001AE03B689B68002B02D104233B6213E04A
:102140003B689B68012B05D108233B627B68FA69D9
:102150001A6109E008233B627B68FA695A6103E06F
:1021600000233B6200E000BFBB69FF2B01D87B6806
:1021700001E07B6804337B61BB69FF2B02D87B6A7B
:102180009B0002E07B6A083B9B003B617B691A680D
:102190000F213B6901FA03F3DB431A40396A3B69BB
:1021A00001FA03F31A437B691A603B685B6803F02A
:1021B0008053002B00F0B1804D4B9B694C4A43F09B
:1021C000010393614A4B9B6903F00103BB60BB6849
:1021D000484A7B6A9B08023352F82330FB607B6AD3
:1021E00003F003039B000F2202FA03F3DB43FA68B8
:1021F0001340FB607B68404A934213D07B683F4AA0
:1022000093420DD07B683E4A934207D07B683D4A9B
:10221000934201D1032306E0042304E0022302E0F9
:10222000012300E000237A6A02F003029200934047
:10223000FA681343FB602F497B6A9B080233FA68F4
:1022400041F823203B685B6803F48033002B06D001
:102250002D4B1A682C49BB6913430B6006E02A4BCF
:102260001A68BB69DB43284913400B603B685B6815
:1022700003F40033002B06D0234B5A682249BB6974
:1022800013434B6006E0204B5A68BB69DB431E4991
:1022900013404B603B685B6803F48013002B06D04F
:1022A000194B9A681849BB6913438B6006E0164BBB
:1022B0009A68BB69DB43144913408B603B685B68D9
:1022C00003F40013002B21D00F4BDA680E49BB69D1
:1022D0001343CB6021E000BF00003210000031103A
:1022E0000000221000002110000012100000111048
:1022F000001002400000014000080140000C0140B5
:102300000010014000140140000401400B4BDA684A
:10231000BB69DB4309491340CB607B6A01337B62B5
:102320003B681A687B6A22FA03F3002B7FF48EAEB7
:1023300000BF00BF2C37BD4680BC70470004014081
:1023400080B584B000AF78607B68002B01D1012399
:102350002BE17B6893F83D30DBB2002B06D17B6824
:10236000002283F83C207868FEF774FE7B68242204
:1023700083F83D207B681B681A687B681B6822F025
:1023800001021A607B681B681A687B681B6842F44C
:1023900000421A607B681B681A687B681B6822F41D
:1023A00000421A6000F0EAFFF8607B685B68814ACF
:1023B000934207D8FB68804A934294BF01230023CD
:1023C000DBB206E0FB687D4A934294BF0123002301
:1023D000DBB2002B01D00123E7E0FB68784AA2FBC7
:1023E00003239B0CBB607B681B685B6823F03F0189
:1023F0007B681B68BA680A435A607B681B681B6A63
:1024000023F03F017B685B686A4A934202D8BB684D
:10241000013309E0BB684FF4967202FB03F3694A8B
:10242000A2FB03239B0901337A6812680B431362F2
:102430007B681B68DB6923F44F4222F0FF027B6854
:102440005B685C498B4219D8FB68591E7B685B68E6
:102450005B00B1FBF3F3591C40F6FC730B40002BFF
:102460000AD0FB68591E7B685B685B00B1FBF3F325
:102470000133C3F30B0351E004234FE07B689B68F7
:10248000002B11D1FB68581E7B6859680B465B0016
:102490000B44B0FBF3F30133C3F30B03002B0CBF6E
:1024A00001230023DBB212E0FB68581E7B685968E9
:1024B0000B469B000B4499000B44B0FBF3F3013334
:1024C000C3F30B03002B0CBF01230023DBB2002B53
:1024D00001D0012322E07B689B68002B0ED1FB68B2
:1024E000581E7B6859680B465B000B44B0FBF3F346
:1024F0000133C3F30B0343F400430FE0FB68581EA2
:102500007B6859680B469B000B4499000B44B0FB59
:10251000F3F30133C3F30B0343F4404379680968D1
:102520001343CB617B681B681B6823F0C0017B6889
:10253000DA697B681B6A1A437B681B680A431A6066
:102540007B681B689B6823F4034323F0FF037A68CE
:1025500011697A68D26811437A6812680B439360F4
:102560007B681B68DB6823F0FF017B685A697B6826
:102570009B691A437B681B680A43DA607B681B68A7
:102580001A687B681B6842F001021A607B680022AF
:102590001A647B68202283F83D207B6800221A633E
:1025A0007B68002283F83E20002318461037BD4682
:1025B00080BD00BFA08601007F841E00FF083D0093
:1025C00083DE1B43D34D621080B588B002AFF86044
:1025D0007A601A460B467B8113463B81FFF71AFC53
:1025E0007861FB6893F83D30DBB2202B40F0E0804F
:1025F0007B690093192301227049F86800F064F99F
:102600000346002B01D00223D3E0FB6893F83C3053
:10261000012B01D10223CCE0FB68012283F83C208E
:10262000FB681B681B6803F00103012B07D0FB68E4
:102630001B681A68FB681B6842F001021A60FB689D
:102640001B681A68FB681B6822F400621A60FB684A
:10265000212283F83D20FB68102283F83E20FB688E
:1026600000221A64FB687A685A62FB683A895A85C4
:10267000FB685B8D9AB2FB681A85FB68504ADA6288
:1026800079897B693A6AF86800F09CF80346002B68
:1026900001D001238DE000233B61FB681B685B696F
:1026A0003B61FB681B689B693B613B6966E07A693B
:1026B000396AF86800F0DEF90346002B0DD0FB689C
:1026C0001B6C042B07D1FB681B681A68FB681B682E
:1026D00042F400721A6001236BE0FB685B6A1A78AF
:1026E000FB681B681A61FB685B6A5A1CFB685A62CC
:1026F000FB685B8D9BB2013B9AB2FB685A85FB6815
:102700001B8D013B9AB2FB681A85FB681B685B69ED
:1027100003F00403042B1BD1FB681B8D002B17D087
:10272000FB685B6A1A78FB681B681A61FB685B6A66
:102730005A1CFB685A62FB685B8D9BB2013B9AB2E4
:10274000FB685A85FB681B8D013B9AB2FB681A85B2
:102750007A69396AF86800F0CEF90346002B0DD08B
:10276000FB681B6C042B07D1FB681B681A68FB68AD
:102770001B6842F400721A6001231AE0FB681B8D8B
:10278000002B94D1FB681B681A68FB681B6842F435
:1027900000721A60FB68202283F83D20FB6800224B
:1027A00083F83E20FB68002283F83C20002300E0F1
:1027B000022318461837BD4680BD00BF0200100036
:1027C0000000FFFF80B588B002AFF8607A603B6020
:1027D0000B467B81FB68DB6A7B617B69082B06D03B
:1027E0007B69012B03D07B6913F5803F08D1FB681F
:1027F0001B681A68FB681B6842F480721A600BE061
:10280000FB681B6B122B07D1FB681B681A68FB68FF
:102810001B6842F480721A603B6800937B68002258
:102820004FF00111F86800F04FF80346002B0DD06F
:10283000FB681B681B6803F48073B3F5807F03D1CA
:10284000FB684FF400721A64032335E0FB681B69D0
:10285000B3F5804F08D17B89DBB21A46FB681B6851
:1028600002F0FE021A611BE07B89DB11DBB203F090
:102870000603DBB263F00F03DAB2FB681B681A6170
:102880003B687A680E49F86800F075F80346002B3B
:1028900001D0012310E07B89DAB2FB681B681A6162
:1028A0003B687A680749F86800F065F80346002B32
:1028B00001D0012300E0002318461837BD4680BD33
:1028C000080001000200010080B584B000AFF8608C
:1028D000B9603B601346FB7125E03B68B3F1FF3FF5
:1028E00021D0FFF797FA0246BB69D31A3A689A4299
:1028F00002D33B68002B16D1FB6800221A63FB68E9
:10290000202283F83D20FB68002283F83E20FB68EC
:102910001B6C43F02002FB681A64FB68002283F8FA
:102920003C20012323E0BB681B0CDBB2012B0DD143
:10293000FB681B685B69DA43BB6813409BB2002BE2
:102940000CBF01230023DBB21A460CE0FB681B68B6
:102950009B69DA43BB6813409BB2002B0CBF012379
:102960000023DBB21A46FB799A42B6D00023184600
:102970001037BD4680BD80B584B000AFF860B96047
:102980007A603B6051E0FB681B685B6903F480631D
:10299000B3F5806F23D1FB681B681A68FB681B685E
:1029A00042F400721A60FB681B686FF480625A611F
:1029B000FB6800221A63FB68202283F83D20FB6835
:1029C000002283F83E20FB681B6C43F00402FB6886
:1029D0001A64FB68002283F83C20012346E07B68F0
:1029E000B3F1FF3F21D0FFF715FA02463B68D31A37
:1029F0007A689A4202D37B68002B16D1FB680022CA
:102A00001A63FB68202283F83D20FB68002283F8CC
:102A10003E20FB681B6C43F02002FB681A64FB68D5
:102A2000002283F83C20012320E0BB681B0CDBB2B2
:102A3000012B0CD1FB681B685B69DA43BB68134050
:102A40009BB2002B14BF01230023DBB20BE0FB6819
:102A50001B689B69DA43BB6813409BB2002B14BF11
:102A600001230023DBB2002B8DD100231846103741
:102A7000BD4680BD80B584B000AFF860B9607A60B3
:102A80002DE0F86800F078F80346002B01D0012310
:102A90002DE0BB68B3F1FF3F21D0FFF7BBF9024641
:102AA0007B68D31ABA689A4202D3BB68002B16D14E
:102AB000FB6800221A63FB68202283F83D20FB6834
:102AC000002283F83E20FB681B6C43F02002FB6869
:102AD0001A64FB68002283F83C20012307E0FB68AE
:102AE0001B685B6903F08003802BCAD10023184662
:102AF0001037BD4680BD80B584B000AFF860B960C6
:102B00007A602DE0F86800F037F80346002B01D01A
:102B100001232DE0BB68B3F1FF3F21D0FFF77AF925
:102B200002467B68D31ABA689A4202D3BB68002B6C
:102B300016D1FB6800221A63FB68202283F83D202F
:102B4000FB68002283F83E20FB681B6C43F02002E8
:102B5000FB681A64FB68002283F83C20012307E02D
:102B6000FB681B685B6903F00403042BCAD10023D4
:102B700018461037BD4680BD80B483B000AF786082
:102B80007B681B685B6903F48063B3F5806F1BD1BE
:102B90007B681B686FF480625A617B6800221A634D
:102BA0007B68202283F83D207B68002283F83E204A
:102BB0007B681B6C43F004027B681A647B6800220C
:102BC00083F83C20012300E0002318460C37BD4663
:102BD00080BC704780B586B000AF78607B68002B02
:102BE00001D101236CE27B681B6803F00103002B19
:102BF00000F08780924B5B6803F00C03042B0CD031
:102C00008F4B5B6803F00C03082B12D18C4B5B6875
:102C100003F48033B3F5803F0BD1894B1B6803F479
:102C20000033002B6CD07B685B68002B68D10123DC
:102C300046E27B685B68B3F5803F06D1804B1B683A
:102C40007F4A43F4803313602EE07B685B68002B7F
:102C50000CD17B4B1B687A4A23F480331360784B8A
:102C60001B68774A23F4802313601DE07B685B6850
:102C7000B3F5A02F0CD1724B1B68714A43F480232B
:102C800013606F4B1B686E4A43F4803313600BE094
:102C90006B4B1B686A4A23F480331360684B1B68D4
:102CA000674A23F4802313607B685B68002B13D092
:102CB000FFF7B0F8386108E0FFF7ACF802463B696F
:102CC000D31A642B01D90323FAE15D4B1B6803F48B
:102CD0000033002BF0D014E0FFF79CF8386108E0D7
:102CE000FFF798F802463B69D31A642B01D90323F6
:102CF000E6E1534B1B6803F40033002BF0D100E0F6
:102D000000BF7B681B6803F00203002B63D04C4BB1
:102D10005B6803F00C03002B0BD0494B5B6803F09E
:102D20000C03082B1CD1464B5B6803F48033002B4B
:102D300016D1434B1B6803F00203002B05D07B68C0
:102D40001B69012B01D00123BAE13D4B1B6823F025
:102D5000F8027B685B69DB00394913430B603AE09A
:102D60007B681B69002B20D0364B01221A60FFF7CD
:102D700051F8386108E0FFF74DF802463B69D31A75
:102D8000022B01D903239BE12D4B1B6803F00203A7
:102D9000002BF0D02A4B1B6823F0F8027B685B699C
:102DA000DB00274913430B6015E0264B00221A6015
:102DB000FFF730F8386108E0FFF72CF802463B696E
:102DC000D31A022B01D903237AE11D4B1B6803F0B0
:102DD0000203002BF0D17B681B6803F00803002B73
:102DE0003AD07B689B69002B19D0174B01221A60DF
:102DF000FFF710F8386108E0FFF70CF802463B696E
:102E0000D31A022B01D903235AE10D4B5B6A03F05D
:102E10000203002BF0D0012000F0C4FA1CE00A4BA2
:102E200000221A60FEF7F6FF38610FE0FEF7F2FFAE
:102E300002463B69D31A022B08D9032340E100BFA5
:102E40000010024000004242800442429E4B5B6AF6
:102E500003F00203002BE9D17B681B6803F0040335
:102E6000002B00F0A6800023FB75974BDB6903F075
:102E70008053002B0DD1944BDB69934A43F0805370
:102E8000D361914BDB6903F08053BB60BB680123C6
:102E9000FB758E4B1B6803F48073002B18D18B4B92
:102EA0001B688A4A43F480731360FEF7B3FF3861EE
:102EB00008E0FEF7AFFF02463B69D31A642B01D945
:102EC0000323FDE0814B1B6803F48073002BF0D0DB
:102ED0007B68DB68012B06D17B4B1B6A7A4A43F087
:102EE000010313622DE07B68DB68002B0CD1764B6D
:102EF0001B6A754A23F001031362734B1B6A724A03
:102F000023F0040313621CE07B68DB68052B0CD103
:102F10006D4B1B6A6C4A43F0040313626A4B1B6AD5
:102F2000694A43F0010313620BE0674B1B6A664A70
:102F300023F001031362644B1B6A634A23F004030A
:102F400013627B68DB68002B15D0FEF763FF3861E6
:102F50000AE0FEF75FFF02463B69D31A41F288326E
:102F6000934201D90323ABE0574B1B6A03F00203E2
:102F7000002BEED014E0FEF74DFF38610AE0FEF7BB
:102F800049FF02463B69D31A41F28832934201D984
:102F9000032395E04C4B1B6A03F00203002BEED198
:102FA000FB7D012B05D1484BDB69474A23F0805359
:102FB000D3617B68DB69002B00F08180424B5B684A
:102FC00003F00C03082B61D07B68DB69022B46D130
:102FD0003F4B00221A60FEF71DFF386108E0FEF744
:102FE00019FF02463B69D31A022B01D9032367E07C
:102FF000354B1B6803F00073002BF0D17B681B6A14
:10300000B3F5803F08D1304B5B6823F400327B6816
:103010009B682D4913434B602B4B5B6823F4741260
:103020007B68196A7B685B6A0B43274913434B60D3
:10303000274B01221A60FEF7EDFE386108E0FEF72B
:10304000E9FE02463B69D31A022B01D9032337E07C
:103050001D4B1B6803F00073002BF0D02FE01C4BBE
:1030600000221A60FEF7D6FE386108E0FEF7D2FEB5
:1030700002463B69D31A022B01D9032320E0124BED
:103080001B6803F00073002BF0D118E07B68DB694C
:10309000012B01D1012313E00B4B5B68FB60FB6844
:1030A00003F480327B681B6A9A4206D1FB6803F402
:1030B00070127B685B6A9A4201D0012300E0002312
:1030C00018461837BD4680BD001002400070004011
:1030D0006000424280B584B000AF786039607B68A0
:1030E000002B01D10123D0E06A4B1B6803F00703DA
:1030F0003A689A4210D9674B1B6823F0070265496A
:103100003B6813430B60634B1B6803F007033A688B
:103110009A4201D00123B8E07B681B6803F00203E8
:10312000002B20D07B681B6803F00403002B05D024
:10313000594B5B68584A43F4E06353607B681B68F3
:1031400003F00803002B05D0534B5B68524A43F44D
:1031500060535360504B5B6823F0F0027B689B68C0
:103160004D4913434B607B681B6803F00103002B40
:1031700040D07B685B68012B07D1474B1B6803F489
:103180000033002B15D101237FE07B685B68022BA5
:1031900007D1414B1B6803F00073002B09D10123B9
:1031A00073E03D4B1B6803F00203002B01D10123A8
:1031B0006BE0394B5B6823F003027B685B68364940
:1031C00013434B60FEF726FEF8600AE0FEF722FE8E
:1031D0000246FB68D31A41F28832934201D9032395
:1031E00053E02D4B5B6803F00C027B685B689B002F
:1031F0009A42EBD1274B1B6803F007033A689A42C7
:1032000010D2244B1B6823F0070222493B6813436A
:103210000B60204B1B6803F007033A689A4201D009
:10322000012332E07B681B6803F00403002B08D005
:10323000194B5B6823F4E0627B68DB681649134333
:103240004B607B681B6803F00803002B09D0124B0E
:103250005B6823F460527B681B69DB000E491343F3
:103260004B6000F021F802460B4B5B681B0903F032
:103270000F030A49CB5C22FA03F3094A1360094B96
:103280001B681846FEF784FD002318461037BD461C
:1032900080BD00BF0020024000100240385F0008DF
:1032A000000000200400002090B48AB000AF2A4B38
:1032B0003C1D0FCB84E80F0040F201233B8000232C
:1032C000FB610023BB6100237B6200237B61002341
:1032D0003B62224B5B68FB61FB6903F00C03042B30
:1032E00002D0082B03D02DE01D4B3B622DE0FB6983
:1032F0009B0C03F00F0307F12802134413F8243C3E
:103300007B61FB6903F48033002B13D0134B5B68A4
:103310005B0C03F0010307F12802134413F8283C67
:10332000BB617B690E4A02FB03F2BB69B2FBF3F39C
:103330007B6204E07B690B4A02FB03F37B627B6ADE
:103340003B6202E0064B3B6200BF3B6A18462837EF
:10335000BD4690BC704700BF285F000800100240C7
:1033600000127A0000093D0080B400AF024B1B68D8
:103370001846BD4680BC70470000002080B500AFF5
:10338000FFF7F2FF0246054B5B681B0A03F00703D9
:103390000349CB5C22FA03F3184680BD00100240BB
:1033A000485F000880B485B000AF78600A4B1B68A6
:1033B0000A4AA2FB03235B0A7A6802FB03F3FB6061
:1033C00000BFFB685A1EFA60002BF9D100BF00BF96
:1033D0001437BD4680BC704700000020D34D6210FA
:1033E000014B1868704700BF0C00002070B5002624
:1033F0000C4D0D4C641BA410A64209D102F0F6FC42
:1034000000260A4D0A4C641BA410A64205D170BDCB
:1034100055F8043B98470136EEE755F8043B9847CA
:103420000136F2E7346300083463000834630008AF
:1034300038630008024B0146186800F065B800BF09
:103440000C0000200A44914200F1FF3300D1704784
:1034500010B511F8014B914203F8014FF9D110BD9D
:1034600003460244934200D1704703F8011BF9E779
:1034700038B50546002943D051F8043C0C1F002BF9
:10348000B8BFE41801F098FB1E4A1368104633B920
:10349000636014602846BDE8384001F093BBA34246
:1034A0000AD921686218934201BF1A685B685218F2
:1034B000226063600460EDE71A465B680BB1A342CB
:1034C000FAD911685018A0420BD120680144501855
:1034D00083421160DED118685B680144116053605B
:1034E000D8E702D90C232B60D4E7206821188B423F
:1034F00001BF19685B680918216063605460C9E7FF
:1035000038BD00BFFC010020F8B5CD1C25F0030537
:1035100008350C2D38BF0C25002D064601DBA942CD
:1035200003D90C2333600020F8BD01F045FB21498D
:103530000A6814469CB9204F3B6823B9214630469F
:1035400000F09CFC38602946304600F097FC431C94
:1035500023D10C233046336001F034FBE3E72368CA
:103560005B1B17D40B2B03D923601C44256004E09C
:103570006368A2420CBF0B605360304601F022FB2F
:1035800004F10B00231D20F00700C21ACCD01B1A37
:10359000A350C9E722466468CCE7C41C24F00304A6
:1035A000A042E3D0211A304600F068FC0130DDD1A2
:1035B000CFE700BFFC01002000020020002B2DE916
:1035C000F0471F46BBBF03F100431F4600232D23D6
:1035D00088B01446129A109D1370149BDDF84CA00D
:1035E00023F02008B8F1460F05D0B8F1450F00D1FF
:1035F0000135022300E0032307AA049206AACDE9BD
:1036000002A2CDE9003522463B4600F0D5FCB8F1D8
:10361000470F064602D1119BDB0722D5B8F1460FB2
:1036200006EB050910D13378302B0AD10022002394
:1036300020463946FDF7B8F918B9C5F10105CAF8B1
:103640000050DAF800309944002200232046394621
:10365000FDF7AAF908B1CDF81C903022079B4B4525
:1036600007D33046079B159A9B1B136008B0BDE833
:10367000F087591C07911A70F0E70346F7B5002947
:1036800003F8022BB6BF2D222B2249420929427092
:103690002BDD0DF10704A4460A2791FBF7F60A4635
:1036A000A64607FB1615632A05F13005314604F1DD
:1036B000FF340EF8015CF0DC3031AEF1020504F8A5
:1036C000011C2946441C61450AD30DF10902A2EBF5
:1036D0000E02654588BF00221344181A03B0F0BDDE
:1036E00011F8012B04F8012FEDE7302330318370FE
:1036F000C170031DF1E700002DE9F04F91B00C46B9
:10370000DDF8688016461F46054601F043FA036857
:1037100018460993FCF71CFD00230E93D8F80030DF
:103720000A90073323F0070303F1080294F8189076
:10373000D4F800B0C8F80020D3E90023C4E912236C
:10374000D4E9128A2AF000430B934FF0FF3240462F
:103750009C4B0B99FDF75AF970BB4FF0FF32404676
:10376000984B0B99FDF734F930BB002200234046FB
:103770005146FDF723F910B12D2384F84330924BC5
:103780009248B9F1470F94BF9846804603234FF003
:10379000000A23612BF004032360334621462846A8
:1037A00000970FAA00F0D4F9013040F090804FF05C
:1037B000FF3011B0BDE8F08F4246534640465146B7
:1037C000FDF724F948B1BAF1000FB8BF2D238048A6
:1037D000B8BF84F843307F4BD3E7636809F0DF015B
:1037E0005A1C42D106236360002206920EAACDE93C
:1037F00004920DAA4BF4806303920DF13302CDE9DC
:1038000001322360636842460093284653460B9179
:10381000FFF7D4FE0B99804647290D9908D1C81CA3
:1038200002DB6368994240DDA9F102095FFA89F978
:10383000B9F1650F1FD84A46013904F150000D91C6
:10384000FFF71BFF0E9A82461318012A236102DC40
:103850002268D20701D5013323619DF83330002B54
:103860009BD02D2384F8433097E74729BCD1002B08
:10387000BAD10123B7E7B9F1660F18D100296368FF
:103880000BDD216113B92268D00702D501330B4447
:1038900023614FF0000AA165DFE713B92268D20760
:1038A00001D50233F4E70123F2E74FF067090E9BDD
:1038B000994205DB23682161D807EAD54B1CE7E76D
:1038C0000029CCBF0122C1F102021344E0E72368C2
:1038D0005A0507D42369424631462846B847013085
:1038E0002BD164E7B9F1650F40F2DD80D4E9120114
:1038F00000220023FDF758F8002833D00123314679
:103900002846354AB84701303FF451AFDDE90D2371
:103910009A4202DB2368D8070FD5DDE90923314637
:103920002846B84701303FF442AF4FF0000804F199
:103930001A090E9B013B434509DC23689B0700F1F4
:103940000281E0680F9B9842B8BF184631E7012317
:103950004A4631462846B84701303FF428AF08F1BF
:103960000108E6E70D9B002B38DC01233146284691
:10397000194AB84701303FF41AAFDDE90D2313436C
:1039800002D12368D907D8D5DDE909233146284675
:10399000B84701303FF40BAF4FF0000904F11A0AA9
:1039A0000D9B5B424B4501DC0E9B94E70123524685
:1039B00031462846B84701303FF4F9AE09F1010914
:1039C000EEE700BFFFFFEF7F545F0008585F00087D
:1039D000605F00085C5F0008645F00080E9AA36DDA
:1039E0009A42A8BF1A46002A914637DC4FF0000BD6
:1039F00029EAE97904F11A02D4F858A0AAEB0903DC
:103A00005B4533DCDDE90D239A423BDB2368DA07B3
:103A100038D40E9A0D99A2EB0A03A2EB010999453D
:103A2000A8BF9946B9F1000F34DC4FF0000829EA2D
:103A3000E97904F11A0ADDE90D239B1AA3EB0903C6
:103A400043457FF77AAF0123524631462846B847AF
:103A500001303FF4ACAE08F10108ECE71346314603
:103A600042462846B8470130C0D1A0E6012331467E
:103A700028460B92B84701303FF499AE0B9A0BF1F0
:103A8000010BB9E73146DDE909232846B847013083
:103A9000BFD18CE64B463146284608EB0A02B847B0
:103AA0000130C2D183E60E9A012A01DCDB0737D54B
:103AB0000123424631462846B84701303FF477AEED
:103AC000DDE9092331462846B84701303FF46FAE9F
:103AD000D4E9120100220023FCF766FFD8B90E9B3F
:103AE00008F10102013B31462846B84701300ED1AA
:103AF0005DE601234A4631462846B84701303FF487
:103B000056AE08F101080E9B013B4345F1DC5346DC
:103B100004F15002E0E64FF0000804F11A09F2E760
:103B200001234246DFE701234A4631462846B8478B
:103B300001303FF43CAE08F10108E3680F995B1ACD
:103B40004345F0DCFDE64FF0000804F11909F4E705
:103B50002DE9F047164699468A680B690746934255
:103B6000B8BF1346336091F843200C46DDF820803F
:103B70000AB1013333602368990642BF33680233C8
:103B80003360256815F0060506D104F1190AE368CB
:103B900032689B1AAB4228DC94F84320131E22683B
:103BA00018BF012392062DD44946384604F143023A
:103BB000C047013020D02368E56803F00603042BDA
:103BC00018BF002532684FF00006A36808BFAD1A81
:103BD000226908BF25EAE5759342C4BF9B1AED1818
:103BE0001A34B5421AD1002008E001235246494652
:103BF0003846C047013003D14FF0FF30BDE8F087B1
:103C00000135C4E73020E11881F843005A1C94F8CC
:103C100045102244023382F84310C5E701232246AF
:103C200049463846C0470130E6D00136D9E70000A2
:103C30002DE9FF470C46277E9146782F80469A460D
:103C40000C9904F1430207D8622F0AD8002F00F024
:103C5000D980582F00F0A48004F1420684F8427005
:103C60003AE0A7F16303152BF6D801A050F823F032
:103C7000C93C0008DD3C0008593C0008593C0008DC
:103C8000593C0008593C0008DD3C0008593C00083C
:103C9000593C0008593C0008593C0008EB3D00081D
:103CA0000D3D0008CD3D0008593C0008593C000876
:103CB0000D3E0008593C00080D3D0008593C000825
:103CC000593C0008D53D00080B6804F142061A1D56
:103CD0001B680A6084F842300123A4E02568086864
:103CE0002E0600F104030AD505680B60002D03DAE7
:103CF0002D236D4284F843300A235E4819E015F005
:103D0000400F05680B6018BF2DB2EFE70B68256800
:103D1000181D0860280601D51D6802E06906FBD55C
:103D20001D886F2F0CBF08230A235248002184F8F6
:103D300043106668002EA8BF2168A660A4BF21F0CA
:103D4000040121600DB9002E4DD01646B5FBF3F1EC
:103D500003FB1157C75D06F8017D2F46BB420D4698
:103D6000F4D9082B0BD12368DF0708D523696168D4
:103D70009942DEBF302306F8013C06F1FF36921B64
:103D800022614B4621464046CDF800A003AAFFF72A
:103D9000DFFE01304CD14FF0FF3004B0BDE8F087BA
:103DA000344884F845700E68236856F8045B1F0693
:103DB0000E6014D5D90744BF43F0200323601DB91A
:103DC000236823F0200323601023AFE7236843F028
:103DD000200323607823284884F84530E3E75E0613
:103DE00048BFADB2E6E71646BBE70B6826681D1D67
:103DF00060690D6035061B6801D5186002E0710628
:103E0000FBD51880002316462361BAE70B681A1DFC
:103E10000A601E6800213046626800F0BFFE08B1EB
:103E2000801B606063682361002384F84330A8E747
:103E30003246494640462369D0470130ABD023681B
:103E40009B0713D4E068039B9842B8BF1846A4E7C9
:103E50000123324649464046D04701309BD00135C8
:103E6000E36803995B1AAB42F2DCEBE7002504F14F
:103E70001906F5E7665F0008775F000838B500238C
:103E8000054D044608462B60FDF76EFB431C02D12E
:103E90002B6803B1236038BD5C0200202DE9F74F89
:103EA00003690C690746A342C0F28380013C00F11C
:103EB000140501F1140805EB8403019358F824302C
:103EC00055F8242001339A42B2FBF3F64FEA840BF3
:103ED00008EB840932D34FF0000E4046AC46F24660
:103EE00050F8042B93B206FB03E3120C4FEA134E77
:103EF00006FB02E29BB2AAEB0303DCF800A04FEA48
:103F0000124E1FFA8AFA53441FFA82FADCF8002094
:103F10008145CAEB124202EB23429BB243EA0243C1
:103F20004FEA224A4CF8043BDAD255F80B302BB951
:103F3000019B043B9D421A462FD33C61384601F059
:103F4000C1F8002825DB28464FF0000C013658F850
:103F5000041BD0F800E08BB2ACEB03031FFA8EF227
:103F600013440A0CC2EB1E4202EB23429BB243EA0B
:103F70000243C1454FEA224C40F8043BE7D255F8D2
:103F8000242005EB840322B9043B9D421A460AD340
:103F90003C61304603B0BDE8F08F1268043B002A54
:103FA000CBD1013CC6E71268043B002AF0D1013CAA
:103FB000EBE70020EEE700002DE9F04F16461F4624
:103FC000446A99B00546CDE90467DDF8948074B978
:103FD0001020FFF72FFA0246686220B9EA21AE4BA3
:103FE000AE4801F085F9C0E901440460C4606B6A21
:103FF000196851B15A68012393404A608B60284682
:1040000000F026FE00226B6A1A603B1EAFBF002341
:10401000012223F000430593A8BFC8F80030DDF863
:1040200014909F4BB8BFC8F8002033EA090319D198
:1040300042F20F73249A1360C9F31303334300F061
:104040008085269B53B9974B22E0974B0893083302
:10405000269A1360089819B0BDE8F08F914B089329
:104060000333F5E7DDE90434CDE90C34DDE90C0177
:1040700000220023FCF798FC804658B10123249AC3
:104080001360269B002B00F0598588481860431E5A
:104090000893DFE716AB019317AB00932846DDE9E1
:1040A0000C2301F0BBF8C9F30A548246002C7ED0E1
:1040B000DDE90C010D9BA4F2FF34C3F3130343F0BD
:1040C0007F5141F44011CDF84C800022784BFCF731
:1040D0004BF86BA3D3E90023FCF7FEF96AA3D3E9FD
:1040E0000023FCF743F8064620460F46FCF78AF902
:1040F00067A3D3E90023FCF7EFF902460B463046ED
:104100003946FCF733F806460F46FCF795FC0022CB
:104110008146002330463946FCF750FC48B14846FA
:10412000FCF770F932463B46FCF73EFC08B909F152
:10413000FF39B9F1160F57D8DDE90C015D4B03EBE0
:10414000C903D3E90023FCF739FC00284ED0002333
:1041500009F1FF390F93169B1C1B631E099349BF7E
:10416000C4F1010300230693002354BF069309936F
:10417000B9F1000F3CDB099BCDF838904B44099313
:1041800000230A93229B092B6CD8052BC4BF043B48
:104190002293229BC8BF0024A3F10203D8BF0124AD
:1041A000032B00F28B80DFE803F02D4F4D5BDDE940
:1041B00016431C4404F23243202BC3BFC3F1400317
:1041C00004F2124009FA03F3C3F12003C6BF26FA32
:1041D00000F0184306FA03F0FCF704F90123A1F1FB
:1041E000F871013C139370E70123B3E70F90B2E736
:1041F000069BA3EB09030693C9F100030A9300236E
:104200000E93BFE700230B93239B002B59DC4FF049
:10421000010B5B46CDF808B0CDF88CB00022686A7F
:104220004260042202F114069E4241684FD928469A
:1042300000F0CEFC089000284DD102464FF4D57115
:104240001D4BCDE60123DEE700230B93239B09EBF7
:10425000030B0BF10103012B0293B8BF0123DDE730
:104260000123F2E7012400230B9422934FF0FF3B3C
:1042700000221223CDF808B02392CFE7AFF30080DD
:1042800061436F63A787D23FB3C8608B288AC63F5C
:10429000FB799F501344D33F955F0008AC5F000843
:1042A0000000F07F915F0008885F0008655F0008EC
:1042B0000000F83FA86000080B60000801230B9382
:1042C000D4E7DDF88CB05B46CDF808B0A6E7013145
:1042D00041605200A6E76B6A089A1A60029B0E2B97
:1042E00000F2A880002C00F0A580B9F1000F34DDA9
:1042F0009A4A09F00F0302EBC30319F4807FD3E954
:104300000034CDE910344FEA291416D0DDE90C0150
:10431000934B0327D3E90823FCF708FACDE90401FE
:1043200004F00F048E4E54B9DDE91023DDE90401D9
:10433000FCF7FCF9CDE9040129E00227F2E7E107E7
:1043400008D5DDE91001D6E90023FCF7C5F8CDE971
:104350001001013764100836E5E700F0A580DDE9BB
:104360000C01C9F100047D4B04F00F0203EBC20302
:10437000D3E90023FCF7B0F802270023CDE90401BC
:10438000774E2411002C40F08480002BD2D10F9B5B
:10439000002B00F08B80DDE90434CDE91034DDE939
:1043A000100100226F4BFCF709FB00287ED0029B16
:1043B000002B7BD0BBF1000F38DDDDE910010022BE
:1043C000694BFCF789F85C46CDE9040109F1FF3837
:1043D00001373846FCF716F8DDE90423FCF77CF8D2
:1043E0000022624BFBF7C2FEA1F15076CDE910012D
:1043F0001196002C5DD1DDE9040100225C4BFBF736
:10440000B3FE02460B46CDE904233346109AFCF76F
:10441000F3FA002840F09E82DDE90401109A06F1CB
:104420000043FCF7CBFA002840F09282DDE90C341F
:10443000CDE90434179B002BC0F25381B9F10E0F64
:1044400000F34F81454B03EBC903D3E90034CDE9B9
:104450000634239B002B80F2DB80029B002B00F3B1
:10446000D78040F07482DDE906010022404BFCF762
:1044700033F8DDE90423FCF7B5FA029C2646002850
:1044800040F04A823123089F09F1010907F8013BF6
:1044900046E2E20705D5D6E90023FCF71DF8012323
:1044A0000137641008366DE7022770E7C846029CA2
:1044B0008FE70899294B214412910B9903EBC40310
:1044C000DDE9106753E90223002955D0002029496E
:1044D000FCF72CF93B463246FBF746FECDE91001CE
:1044E000089FDDE90401FCF7A7FA0446FBF78AFF01
:1044F00002460B46DDE90401FBF736FE02460B4699
:104500003034CDE90423DDE9102307F8014BFCF733
:1045100055FA002874D1DDE9042300201149FBF786
:1045200023FEDDE91023FCF749FA002840F0B680AD
:10453000129B9F423FF47AAFDDE9100100220A4B43
:10454000FBF7CAFF0022CDE91001DDE90401064BAB
:10455000FBF7C2FFCDE90401C3E700BFA860000874
:10456000806000080000F03F0000244000001C4074
:10457000000014400000E03F30463946FBF7ACFF36
:10458000129BCDE91001089C1493DDE90401FCF7AE
:1045900053FA1590FBF736FF02460B46DDE904019E
:1045A000FBF7E2FD159B0646303304F8013B129BF6
:1045B0000F469C424FF0000224D1DDE91001B34BBD
:1045C000FBF7D4FD02460B4630463946FCF714FA99
:1045D000002862D1DDE910230020AC49FBF7C4FDBF
:1045E00002460B4630463946FCF7E8F900283FF40E
:1045F0001DAF149F7B1E149317F8013C302BF8D08D
:10460000C1463AE0A24BFBF767FFCDE90401BCE7E6
:10461000089FDDE90623DDE90401FCF787F8FCF7D4
:104620000BFA0446FBF7EEFEDDE90623FBF754FF29
:1046300004F130060B460246DDE90401FBF794FD68
:1046400007F8016B089E029BBE1BB3423AD102469B
:104650000B46FBF78BFD02460B46CDE90223DDE955
:104660000623FCF7C9F958BBDDE90623DDE90201A1
:10467000FCF79AF908B1E10722D42846514600F028
:10468000E7FA00233B70249B09F101001860269B88
:10469000002B3FF4DFAC1F60DCE427463B461F469F
:1046A00013F8012D392A07D1089A9A42F7D13022FE
:1046B000089908F101080A701A7801321A709FE708
:1046C000C846EBE70022724BFBF706FF02460B469B
:1046D000CDE9042300220023FCF766F9002898D0D6
:1046E000CBE70B9A002A00F0CD80229A012A00F332
:1046F000AF80139A002A00F0A78003F233430A9C8C
:10470000069F069A01211A440692099A28461A44DD
:10471000099200F057FB0646002F0CDD099B002B89
:1047200009DDBB42A8BF3B46069AFF1AD21A069281
:10473000099AD31A09930A9BF3B10B9B002B00F043
:10474000A980002C10DD31462246284600F0F4FBFB
:10475000524601460646284600F04AFB804651462E
:10476000284600F075FAC2460A9B1A1B04D051462F
:10477000284600F0E1FB82460121284600F022FB9A
:104780000E9B0446002B40F387801A4601462846BC
:1047900000F0D2FB229B0446012B40F380804FF0B7
:1047A0000008236904EB8303186900F0BDFAC0F127
:1047B0002000099B184410F01F0000F09280C0F107
:1047C0002003042B40F38A80C0F11C00069B0744A1
:1047D00003440693099B03440993069B002B05DDC4
:1047E00051461A46284600F001FC8246099B002BE0
:1047F00005DD21461A46284600F0F8FB04460F9BCB
:10480000002B70D02146504600F05CFC00286ADA8C
:10481000002351460A22284600F03CFA0B9B8246B0
:1048200009F1FF39002B00F09381314600230A2261
:10483000284600F02FFABBF1000F064600F39380E4
:10484000229B022B57DC8EE0169BC3F1360356E702
:10485000029B5C1E0A9BA342B7BF0A9B1C1BE21A69
:104860000E9BBEBF0A949B180E93029BB8BF0024F8
:10487000002BBBBF069B029A069F9F1AACBF029BF0
:1048800000233EE70A9C069F0B9E45E70000E03FA1
:10489000000024400A9A6AE7229B012B19DC049B42
:1048A000BBB9059BC3F313039BB9059B23F00043DE
:1048B0001B0D1B0583B14FF00108069B01330693C6
:1048C000099B013309930E9B002B7FF46AAF0120F3
:1048D0006FE74FF00008F6E79846F4E73FF47DAF46
:1048E00018461C3072E7029B002B36DC229B022B01
:1048F00033DDDDF808B0BBF1000F0DD121465B467A
:104900000522284600F0C6F901460446504600F04C
:10491000D9FB00283FF7B6AD239B089F6FEA030938
:104920004FF000082146284600F092F9002E3FF48F
:10493000A4AEB8F1000F05D0B04503D041462846DB
:1049400000F086F93146284600F082F995E6002409
:104950002646E1E7C146264694E50B9BDDF808B004
:10496000002B00F0FC80002F05DD31463A4628463A
:1049700000F03CFB0646B8F1000F5CD02846716899
:1049800000F026F9074628B9024640F2EA217E4B9C
:10499000FFF726BB326906F10C01023292000C309F
:1049A000FEF750FD01223946284600F01FFBB046B5
:1049B0000646089B01330293089B5B440A93049BC1
:1049C00003F001030993029B2146504603F1FF3B8C
:1049D000FFF764FA034641463033049050460B9388
:1049E00000F070FB324606902146284600F086FB18
:1049F000C26807460B9B02BB0146504600F062FBB3
:104A000002460B9B39462846CDE90B3200F020F9CF
:104A1000229B0C9A029F43EA0201099B0B430B9BCA
:104A20000DD1392B27D0069A002A01DD049B3133A2
:104A30008BF8003076E73046B9E70122E2E70699C5
:104A4000002904DB229801430998014320D1002A60
:104A5000EEDD514601222846029300F0C7FA2146B6
:104A6000824600F02FFB0028029B02DCE0D1DA072F
:104A7000DED5392BDAD139238BF800303B461F467F
:104A800017F8012C013B392A50D001321A7049E73E
:104A9000002A03DD392BEED00133C9E7029A0A99C7
:104AA00002F8013C8A422AD0514600230A222846B5
:104AB00000F0F0F8B04582464FF000034FF00A02D4
:104AC0004146284607D100F0E5F880460646029B9D
:104AD0000133029377E700F0DDF83146804600238A
:104AE0000A22284600F0D6F80646F0E7BBF1000F90
:104AF000CCBF5F4601274FF00008089A1744514683
:104B000001222846029300F071FA2146824600F005
:104B1000D9FA0028B2DC02D1029BDB07AED43B46B7
:104B20001F4613F8012D302AFAD0FBE6089A9A4264
:104B3000A5D1312309F101091370F3E6134BFFF7F7
:104B4000A7BA269B002B7FF480AA114BFFF7A0BACF
:104B5000BBF1000F03DC229B022B3FF7CCAE089F7A
:104B600021465046FFF79AF9089A00F1300307F8FA
:104B7000013BBA1A9345B9DD514600230A22284663
:104B800000F088F88246EBE70B600008645F0008DD
:104B9000885F00080048704760010020034610B598
:104BA000C9B202449342184601D1002003E00478C0
:104BB00001338C42F6D110BD014800F0CABB00BFE2
:104BC00064020020014800F0C5BB00BF6402002061
:104BD00070B5466A04460D4676B91020FEF72AFCE9
:104BE0000246606220B96621174B184800F080FB2E
:104BF000C0E901660660C660666AF36883B1636AED
:104C0000DB6853F82500B8B9012101FA05F6721DD9
:104C10002046920000F05EFB60B1C0E901560EE054
:104C200021220421204600F055FB636AF060DB6816
:104C3000002BE4D1002070BD026843F8252000233A
:104C4000C0E90333F7E700BF955F00081C60000868
:104C500070B5466A05460C4676B91020FEF7EAFBA9
:104C60000246686220B98A21084B094800F040FBDF
:104C7000C0E901660660C6603CB16B6A6268DB68C9
:104C800053F82210216043F8224070BD955F000860
:104C90001C6000082DE9F04198460C4600230E697F
:104CA000074601F1140005680133A9B202FB018136
:104CB0002D0C4FEA114C02FB05C589B201EB0541F1
:104CC0009E424FEA154840F8041BECDCB8F1000F97
:104CD00022D0A368B34219DC616838460131FFF77E
:104CE00077FF054628B90246B5210D4B0D4800F067
:104CF000FFFA226904F10C01023292000C30FEF737
:104D0000A1FB21463846FFF7A3FF2C4604EB8603A0
:104D10000136C3F8148026612046BDE8F08100BF4B
:104D20000B6000081C600008020C12040346CAB99C
:104D30000304102013F07F4F04BF1B02083013F050
:104D4000704F04BF1B01043013F0404F04BF9B00A1
:104D50000230002B05DB13F0804F00F1010008BF8B
:104D6000202070470020E5E70368024613F00700A3
:104D70000BD0D90722D4980749BF5B089B080120B4
:104D800013605CBF02201360704799B209B910200C
:104D90001B0C13F0FF0F04BF1B0A0830190704BFD8
:104DA0001B090430990704BF9B080230D90703D4BC
:104DB0005B0800F1010003D01360704700207047CA
:104DC0002020704710B50C460121FFF701FF024675
:104DD00028B94FF4A071044B044800F089FA01236C
:104DE0004461036110BD00BF0B6000081C60000837
:104DF0002DE9F04F14460A6923690D469A42BEBF59
:104E00000B4625461C46D5F810A0D4F81090AB6888
:104E100069680AEB0907BB4285B0B8BF0131FFF7EB
:104E2000D7FE30B9024640F25D11414B414800F0D7
:104E30005FFA00F114063346002206EB870843456B
:104E40001ED305F1140C04F114030CEB8A0C03EBD4
:104E500089020292ACEB0502153A22F003020432F9
:104E600005F115018C4538BF04220192029A039383
:104E70009A4208D8002F55DC076105B0BDE8F08FD5
:104E800043F8042BDBE7B3F800A0BAF1000F20D001
:104E9000B146002205F1140E5EF8044BD9F800B0BB
:104EA000A1B21FFA8BFB0AFB01B11144D9F8002013
:104EB000240C120C0AFB042404EB114489B241EACD
:104EC0000441F4454FEA144249F8041BE4D801991F
:104ED0007250039A0433B2F80290B9F1000F1FD058
:104EE000B6464FF0000A346805F114010A88BEF88E
:104EF00002B0A4B209FB02B2924444EA0A444EF85A
:104F0000044B51F8044BBEF80020240C09FB042488
:104F10008C4504EB1A444FEA144AE7D8019AB4507E
:104F20000436A3E758F8043D002BA5D1013FA1E7C3
:104F30000B6000081C6000082DE9F843154612F0CC
:104F4000030206460F4607D0254C013A002354F8C9
:104F50002220FFF79FFE0746AD103DD0746A7CB952
:104F60001020FEF767FA0246706228B94FF4D77135
:104F70001C4B1D4800F0BCF9C0E901440460C4604A
:104F8000D6F82480D8F808404CB940F27121304658
:104F9000FFF718FF00230446C8F8080003604FF02D
:104FA0000009EB070AD5394622463046FFF720FFB5
:104FB000804639463046FFF74BFE47466D100BD012
:104FC000206838B9224621463046FFF711FF20609D
:104FD000C0F800900446E4E73846BDE8F88300BF17
:104FE00070610008955F00081C6000082DE9F0471B
:104FF0000C46074691462369496803EB6218A3688B
:105000004FEA621A08F10106B3420BDB3846FFF79C
:10501000DFFD054648B9024640F2D911274B284822
:1050200000F066F901315B00EEE7002300F11401A6
:1050300000F110021846534533DB20692AEAEA7A68
:1050400004F1140319F01F0901EB8A0103EB800C32
:105050002BD08A460022C9F1200E186800FA09F008
:1050600002434AF8042B53F8042B9C4522FA0EF213
:10507000F3D8ACEB0403153B23F00303043304F132
:105080001500844538BF0423CA500AB108F102064E
:10509000013E384621462E61FFF7DAFD2846BDE87D
:1050A000F08742F8040F0133C5E7043953F8042BA5
:1050B0009C4541F8042FF9D8EAE700BF0B600008CF
:1050C0001C60000803460A69006930B5801A0DD1DA
:1050D0001433143103EB820401EB820154F8045DB4
:1050E00051F8042D954202D004D3012030BDA342D3
:1050F000F4D3FBE74FF0FF30F8E700002DE9F84F5D
:105100000C460646114620469246FFF7DBFF051E79
:1051100011D129463046FFF75BFD024628B940F21F
:1051200032213C4B3C4800F0E3F80123C0E9043550
:105130001046BDE8F88FA4BF5346A2463046DAF8C1
:105140000410A6BF1C4600250125FFF741FD0246BD
:1051500018B94FF410712F4BE4E700F11408DAF896
:105160001070C5604FF0000C0AF114050AF1100030
:10517000C246266904F1140905EB870E09EB860681
:1051800050F804BF59F8043B1FFA8BF161441FFA31
:1051900083FC1B0CA1EB0C01C3EB1B4303EB214372
:1051A00089B24FEA234C4E4541EA03434AF8043B97
:1051B000E6D8331B153B23F0030315340433A64212
:1051C00038BF04231D4443441E462C4674450ED369
:1051D0000EF10301491B21F00301033DAE4538BF29
:1051E0000021194451F8043D8BB11761A0E754F830
:1051F000048B1FFA88F16144081400EB184089B24F
:1052000041EA00414FEA204C46F8041BDEE7013F2B
:10521000E8E700BF0B6000081C6000082DE9F341BF
:105220000121DDE9087690461D46FFF7D1FC0446D2
:1052300030B9024640F20A31244B254800F058F8B4
:10524000C5F31303C5F30A552DBB0193B8F1000351
:1052500026D068460093FFF787FD0099F0B1019AC8
:10526000C0F1200302FA03F30B43C24063610192D1
:10527000019B002B14BF02210121A3612161C5B153
:10528000A5F233450544C0F135003D60306020464D
:1052900002B0BDE8F08143F48013D6E76161E7E72F
:1052A00001A8FFF761FD0121019B216163612030AD
:1052B000E5E704EB8103A0F2324038601869FFF79C
:1052C00033FDC0EB41113160E1E700BF0B60000826
:1052D0001C60000838B502FB01F52946FEF714F9F9
:1052E000044618B12A460021FEF7BAF8204638BD18
:1052F0001FB514461A46094B05461B68D8684CB1C1
:10530000074BCDE9013400912B46064900F00EF819
:1053100000F058FA044B1C46F3E700BF0C000020D5
:105320007C61000889610008B76100080EB403B50C
:10533000014603AB054853F8042B0068019300F0C5
:1053400043F802B05DF804EB03B070470C00002096
:1053500070477047704782B001B901A942B14BB1A3
:1053600013780B601278101E18BF012002B070472E
:105370001046FBE76FF00100F8E7936810B4013BBB
:10538000002B936007DA9469A34201DB0A2902D15A
:1053900010BC00F049B91368581C10601970084619
:1053A00010BC7047F8B506460F461446D518AC42F7
:1053B00001D1002007E03A46304614F8011BFFF700
:1053C000DCFF431CF3D1F8BD2DE9F04F0D46144628
:1053D000984606469DB018B183690BB900F014FBDE
:1053E000894B9D421BD175686B6ED90705D4AB897B
:1053F0009A0502D4A86DFFF7ACFFAB891B0701D556
:105400002B69EBB92946304600F06EF9C0B16B6EDE
:10541000DC070ED54FF0FF301DB0BDE8F08F7B4BA1
:105420009D4201D1B568DFE7794B9D4208BFF56821
:10543000DAE7AB899805EDD4A86DFFF78BFFE9E7B4
:105440000023099320238DF8293030234FF00109E0
:10545000CDF80C80DFF8BC818DF82A3023469A46BF
:1054600013F8012B0AB1252AF9D1BAEB040B0BD0A2
:105470005B46224629463046FFF794FF013000F094
:10548000AA80099A5A4409929AF80030002B00F039
:10549000A28000234FF0FF32CDE905230AF1010A73
:1054A000049307938DF853301A935446052214F849
:1054B000011B5848FFF772FB049AD8B9D10644BFC4
:1054C00020238DF85330130744BF2B238DF853301E
:1054D0009AF800302A2B15D0544600204FF00A0CC1
:1054E000079A214611F8013B303B092B4ED9B0B148
:1054F000079214E0A0EB080309FA03F31343A24652
:105500000493D2E7039B191D1B680391002BBBBFBB
:105510005B4242F0020207930793B8BF04922378DC
:105520002E2B0CD163782A2B35D1039B02341A1D04
:105530001B680392002BB8BF4FF0FF330593DFF8D1
:10554000E4A0032250462178FFF728FB40B1402316
:10555000A0EB0A0003FA00F0049B01340343049318
:1055600014F8011B06222C488DF82810FFF716FBB3
:1055700000283FD0294B1BBB039B073323F00703B5
:1055800008330393099B3B44099367E70C460120CA
:105590000CFB0232A5E700234FF00A0C1946013438
:1055A0000593204610F8012B303A092A03D9002B25
:1055B000C5D00591C3E7044601230CFB0121F0E7A8
:1055C00003AB00932A463046154B04A9FEF794F826
:1055D0000746781CD6D16B6ED90705D4AB899A05DE
:1055E00002D4A86DFFF7B6FEAB895B063FF512AF9C
:1055F000099811E703AB00932A463046084B04A9EB
:10560000FEF716FBE4E700BFF4620008146300082D
:10561000D4620008C2610008CC610008F9360008B5
:10562000A5530008C8610008F8B50E4614460546A3
:1056300018B183690BB900F0E7F9214B9C422BD1DB
:105640006C68A369A360A3891A072FD523696BB37C
:1056500023692068F6B2C01A63693746834204DCC6
:105660002146284600F03CF930BBA3680130013BDD
:10567000A36023685A1C22601E706369834204D0B1
:10568000A389DB0706D50A2E04D12146284600F05F
:1056900027F988B93846F8BD0A4B9C4201D1AC685D
:1056A000CFE7094B9C4208BFEC68CAE72146284671
:1056B00000F01AF80028CBD04FF0FF37EAE700BF20
:1056C000F462000814630008D46200080346084628
:1056D00041B1FF2A04D98A224FF0FF301A60704787
:1056E00001200A7070470000324B70B51D680646F5
:1056F0000C4625B1AB6913B9284600F085F92E4B4D
:105700009C420FD16C68A389B4F90C2019072CD4E2
:10571000DD0611D40923336042F040034FF0FF301F
:10572000A3813EE0254B9C4201D1AC68EBE7244BC2
:105730009C4208BFEC68E6E7580712D5616B41B19F
:1057400004F14403994202D03046FDF791FE002354
:105750006363A38923F02403A38100236360236987
:105760002360A38943F00803A38123694BB9A3896C
:1057700003F42073B3F5007F03D02146304600F0D8
:1057800005FAA089B4F90C2010F001030AD0002317
:10579000A36063695B42A361236943B910F0800091
:1057A000BAD170BD810758BF6369A360F4E70020D8
:1057B000F7E700BF0C000020F46200081463000843
:1057C000D4620008062008B500F048FA0120FBF773
:1057D00057FE00008A892DE9F041054610070C4666
:1057E00058D44B68002B05DC0B6C002B02DC00202E
:1057F000BDE8F081E66A002EF9D0002312F4805251
:105800002F682B6032D0606DA3895A0705D5636875
:10581000C01A636B0BB1236CC01A00230246E66A00
:105820002846216AB047431CA38906D129681D294F
:105830002CD82A4ACA40D60728D50022626022699D
:10584000D904226004D5421C01D12B6803B96065DC
:10585000616B2F600029CAD004F14403994202D041
:105860002846FDF705FE00206063C1E7216A012399
:105870002846B047411CC7D12B68002BC4D01D2B34
:1058800001D0162B01D12F60B1E7A38943F040036B
:10589000A381ADE70F69002FA9D0930718BF00239C
:1058A0000E6808BF4B69A6EB07080F608B60B8F164
:1058B000000F9CDD43463A462846216AA66AB04757
:1058C000002806DCA3894FF0FF3043F04003A3819A
:1058D0008EE70744A8EB0008E9E700BF010040207D
:1058E00038B50B6905460C4613B90025284638BD66
:1058F00018B183690BB900F087F8144B9C421BD197
:105900006C68B4F90C30002BEFD0626ED00704D471
:10591000990502D4A06DFFF71CFD28462146FFF72C
:1059200059FF636E0546DA07E0D4A3899B05DDD4F1
:10593000A06DFFF70FFDD9E7054B9C4201D1AC6884
:10594000DFE7044B9C4208BFEC68DAE7F46200082A
:1059500014630008D4620008002310B50446C0E9AF
:105960000033C0E90433836081814366C28183616F
:10597000194608225C30FDF773FD054B2462636213
:10598000044BA362044BE362044B236310BD00BFCE
:10599000955C0008B75C0008EF5C0008135D000828
:1059A000014900F0AFB800BFE158000870B56825A4
:1059B0004A1E55430E4605F17401FDF7A5FD044648
:1059C00040B10021C0E900160C30A06005F168026A
:1059D000FDF746FD204670BD0148FFF7BABC00BF89
:1059E000680200200148FFF7B5BC00BF6802002034
:1059F0000148FFF7AEBC00BF630200200148FFF77B
:105A0000A9BC00BF6302002010B50446FFF7F0FFF9
:105A1000A3691BB1BDE81040FFF7F0BFC4E9123322
:105A20002365134B134A1B68A262A34208BF0123DC
:105A3000204608BFA36100F01FF86060204600F018
:105A40001BF8A060204600F017F800220421E06057
:105A50006068FFF781FF01220921A068FFF77CFF42
:105A600002221221E068FFF777FF0123A361D1E74B
:105A7000505F0008A1590008F8B50746FFF7ACFFD2
:105A80001E4B1E68B36913B93046FFF7BDFF483699
:105A9000D6E90134013B03D533680BB33668F7E729
:105AA000B4F90C50D5B9164B04F15800E3606566A3
:105AB000FFF74EFCFFF796FF08222946C4E901557F
:105AC000C4E904552560A56104F15C00FDF7C8FC3C
:105AD000C4E90D55C4E912552046F8BD6834D9E72C
