:020000040800F2
:10000000FC4F0020790A0000710A0000710A00000C
:10001000710A0000710A0000710A0000710A0000F4
:10002000710A0000710A0000710A0000710A0000E4
:10003000710A0000710A0000710A0000710A0000D4
:10004000710A0000710A0000710A0000710A0000C4
:10005000710A0000710A0000710A0000710A0000B4
:10006000710A0000710A0000710A0000710A0000A4
:10007000710A0000710A0000710A0000710A000094
:10008000710A0000710A0000710A0000710A000084
:10009000710A0000710A0000710A0000710A000074
:1000A000710A0000710A0000710A0000710A000064
:1000B000710A0000710A0000710A0000710A000054
:1000C000710A0000710A0000710A0000710A000044
:1000D000710A0000710A0000710A0000710A000034
:1000E000710A0000710A0000710A0000710A000024
:1000F000710A0000710A0000710A0000710A000014
:10010000710A0000710A0000710A0000710A000003
:10011000710A0000710A0000710A0000710A0000F3
:10012000710A0000710A0000710A0000710A0000E3
:1001300040F20107C0F2000700BF00BF7F1EFDD1E3
:1001400000BF00BF7047FFFF81B0CDF800E040F076
:10015000B001C8B200F0C6FADDF800E001B07047A7
:1001600081B0CDF800E0811CCDB2C9B20909C9B295
:1001700041F01001C8B200F0B5FA05F00F01C8B2A5
:1001800000F0B0FADDF800E001B0704781B0CDF8C2
:1001900000E08023002B34D0FFF7CAFFFFF7C8FF31
:1001A000FFF7C6FFFFF7C4FF002252B245490A60BD
:1001B000FFF7BEFFFFF7BCFF00EA030189B221B1E0
:1001C000012252B240490A6003E0002252B23E4985
:1001D0000A60FFF7ADFFFFF7ABFF012252B23949CA
:1001E0000A60002252B239490A60394A116829B9B5
:1001F000364A1168002900D000E0F6E75B089BB2A0
:10020000C8E7FFF795FFFFF793FF002252B22D4991
:100210000A60FFF78DFFFFF78BFF012252B22A49D8
:100220000A60FFF785FFFFF783FFFFF781FFFFF706
:100230007FFF012252B223490A60002252B22349B1
:100240000A60234A116829B9204A1168002900D0A0
:1002500000E0F6E70020FFF76BFFFFF769FF1D4A9C
:10026000116819B140F0010080B2FFE7FFF760FFAD
:10027000FFF75EFFFFF75CFFFFF75AFFFFF758FF3E
:10028000FFF756FFFFF754FFFFF752FFFFF750FF4E
:10029000FFF74EFFFFF74CFFFFF74AFFFFF748FF5E
:1002A000FFF746FFFFF744FFFFF742FF002252B27D
:1002B00004490A6004490A60C0B2DDF800E001B0F8
:1002C000704700BFA0812142A4812142008000220A
:1002D000208121422481214281B0CDF800E001211A
:1002E00049B20F480160FFF723FFFFF721FF01210B
:1002F00049B20C480160FFF71BFFFFF719FF00210F
:1003000049B207480160FFF713FFFFF711FF002113
:1003100049B204480160DDF800E001B0704700BF59
:10032000A4812142A081214281B0CDF800E00021CA
:1003300049B219480160FFF7FBFEFFF7F9FE012102
:1003400049B216480160002149B2154801601549BB
:10035000086828B912490868002800D000E0F6E7CC
:10036000FFF7E6FEFFF7E4FEFFF7E2FEFFF7E0FE31
:10037000FFF7DEFEFFF7DCFEFFF7DAFEFFF7D8FE41
:10038000012149B204480160FFF7D2FEFFF7D0FE19
:10039000DDF800E001B07047A4812142A081214234
:1003A000008000222081214281B0CDF800E0C4B25B
:1003B000FFF792FF7820FFF7E9FE4020FFF7E6FE07
:1003C000E0B2FFF7E3FEFFF7AFFFDDF800E001B0BA
:1003D0007047FFFF81B0CDF800E0C5B2C8B2FFF7AB
:1003E000B3FEE8B2FFF7BCFEDDF800E001B07047F5
:1003F00081B0194900EA0101084600220EE00420FC
:1004000022E0082020E010201EE020201CE04020F8
:100410001AE0802018E040F2001015E00F498842F1
:10042000EDD00F498842ECD00E498842EBD00E49FE
:100430008842EAD00D498842E9D00D498842E8D087
:100440000C498842E7D010460B49096841EA00028E
:1004500009490A6001B0704700FCFFFF0008014035
:10046000000C014000100140001401400018014040
:10047000001C0140002001401810024081B0CDF85E
:1004800000E0C6B2F1B20020FFF7A4FF8025002DE6
:1004900005D90020FFF788FF6D1EEDB2F7E7F1B236
:1004A0000020FFF797FFDDF800E001B07047FFFF85
:1004B00081B0CDF800E0AF2000F014F9DDF800E0E5
:1004C00001B0704781B0CDF800E08CB21546774B93
:1004D00000EA03031E461846FFF78AFFB4F1FF0F38
:1004E0000CD1734B9D4203D14FF033333360D9E0CD
:1004F000422D03D14FF044333360D3E04FF6FF7306
:100500009C4214D16A4B9D4207D14FF03333336084
:10051000341D4FF033332360C4E0422D07D14FF038
:1005200044333360341D4FF044332360BAE000217C
:10053000002005F001030BB100211DE005F00203CE
:1005400033B105F4C0730BB1082100E0042113E0BE
:1005500005F0040333B105F020030BB1042100E0E2
:10056000002109E005F0080333B105F020030BB1C9
:100570000C2100E00821FFE74E4B05EA03030BB115
:10058000032009E005F400730BB1022004E005F438
:1005900080630BB10120FFE705F00C030BB10143B1
:1005A000FFE704F0FF039BB2002B3BD0376800202D
:1005B0001FFA84F832462E4608282CD24FF0010349
:1005C00003FA00F408EA0403A34222D185004FF0A5
:1005D0000F03AB40DB4307EA030401FA05F344EAE7
:1005E00003031D4606F48173B3F5817F05D102F242
:1005F00014044FF001038340236006F08203822B32
:1006000005D102F210044FF00103834023602F460E
:10061000FFE7401CD0E717601FFA88F00F4631460D
:10062000164602E00F462946A0B2B0F1FF0F39D9B5
:10063000331DD3F800800022082A30D202F20804C9
:100640004FF0010303FA04F400EA0403A34224D1A7
:1006500095004FF00F03AB40DB4308EA030807FAAD
:1006600005F348EA030801F48173B3F5817F07D1EC
:1006700006F2140502F208044FF00103A3402B60B8
:1006800001F08203822B07D106F2100502F2080462
:100690004FF00103A3402B60FFE7521CCCE7331D52
:1006A000C3F80080DDF800E001B0704700FCFFFFF8
:1006B0001400080000080800CC08E4B201F00705A7
:1006C000EDB2C300064AD21814192378012212B2DF
:1006D000AA4012B243EA0202D0B2D2B222707047EC
:1006E0000000002081B0CDF800E0C4B2FFF7F4FDB7
:1006F0007820FFF74BFD0020FFF748FDE0B2FFF741
:1007000045FDFFF711FEDDF800E001B07047FFFF87
:1007100081B0CDF800E040F20008B8F1070F18D81A
:100720005FFA88F0FFF710FD00267F2E0CD8F0B29C
:10073000FFF716FDF1000948401800EB0801002002
:100740000870761CF6B2F0E708F101085FFA88F845
:10075000E3E7DDF800E001B0704700BF00000020D3
:1007600081B00F48006840F001010D4801600D495B
:100770000D4801600A4801680C48014008480160C2
:10078000074801686FF48020014005480160064871
:1007900001686FF4FE0001400348016001B070473A
:1007A000001002400000FFF804100240FFFFF6FEB8
:1007B00081B0CDF800E0D520FFF794FF0020FFF7CF
:1007C00091FFDDF800E001B07047FFFF81B0CDF888
:1007D00000E00027C6B23F2F06D8F9B2F0B2FFF70B
:1007E0006BFF7F1CFFB2F6E7DDF800E001B0704759
:1007F00081B0CDF800E00026072E15D8F0B2FFF743
:10080000A3FC0020FFF7ACFC00257F2D09D8E900F0
:100810000748401880190078FFF7C6FD6D1CEDB23F
:10082000F3E7761CF6B2E7E7DDF800E001B07047C9
:1008300000000020C408E4B200F00700C0B20025A8
:100840007F2D0FD8EA00084989180B191A78012161
:1008500009B2814009B242EA0101C9B219706D1CA6
:10086000EDB2EDE7704700BF0000002082B0CDF888
:1008700000E05FFA81FA5FFA80F95FFA81F8D7B297
:10088000DEB2B2450FD85FFA8AF15FFA89F0FFF75E
:1008900013FF5FFA8AF1F8B2FFF70EFF0AF1010ABF
:1008A0005FFA8AFAEDE75FFA89F08DF804805FFA63
:1008B00086F85FFA80F99DF80460B9450FD8F1B267
:1008C0005FFA89F0FFF7F8FE5FFA88F15FFA89F0C6
:1008D000FFF7F2FE09F101095FFA89F9EDE7DDF8AA
:1008E00000E002B07047FFFF81B0CDF800E0C5B274
:1008F0008120FFF7F7FEE8B2FFF7F4FEDDF800E035
:1009000001B0704781B0CDF800E0AE20FFF7EAFEFD
:10091000DDF800E001B0704781B04FF000094FF002
:10092000000CBDEB0A0F04DCBDEB0B0F01DBD44662
:10093000EA464BF8049BBBEB0A0FFAD1BCEB0A0F5B
:1009400005DDE246D9F800B00BF1040BF1E701B088
:100950007047FFFF81B0CDF800E0044A89B2FFF78D
:10096000B1FDDDF800E001B0704700BF14000800E1
:1009700081B0CDF800E040F60840C4F20100FFF776
:1009800037FD40F60840C4F20100FFF731FD0121B8
:1009900049B2164801601648016040F60840C4F2AA
:1009A00001004FF001014FEA4121124A89B2FFF7DD
:1009B00089FD40F60840C4F201004FF001014FEA02
:1009C00001210C4A89B2FFF77DFD002149B20A4896
:1009D00001600A49086828B907490868002800D05A
:1009E00000E0F6E7DDF800E001B07047A4812142A5
:1009F000A0812142240008000080002220812142A1
:100A000081B0CDF800E0A620FFF76CFEDDF800E035
:100A100001B0704781B01CF8019B0BF8019BBBEB48
:100A20000A0FF8D101B0704781B0CDF800E0FFF7B0
:100A300069FF40F20808B8F1000F09D9C8F10800B1
:100A4000C0B2FFF71BFDA8F101085FFA88F8F2E7D2
:100A5000FFF72EFDDDF800E001B0704781B00249DC
:100A60000248016001B07047401F000004040020EC
:100A700081B0FEE701B0704781B000F075F800F07A
:100A8000FDF8FFF7EBFF00208DF8000042F20001B7
:100A90003348FFF75FFFFFF76BFF4BF2A907C0F288
:100AA000280700BF00BF7F1EFDD100BF00BFFFF7BA
:100AB00029FFFFF7B9FFFFF7A3FFFF20FFF714FFA0
:100AC000FFF7F6FCFFF774FE012149B225480160EB
:100AD00046F62907C0F2000700BF00BF7F1EFDD108
:100AE00000BF00BF002149B21E48016046F6290739
:100AF000C0F2000700BF00BF7F1EFDD100BF00BFD6
:100B0000FFF706FE0020FFF795FE3F20FFF792FE5D
:100B10000020FFF75BFE7F20FFF758FE9DF80000E6
:100B20001E300A23C2B205219DF80000FFF79EFE89
:100B3000142332220B211E20FFF798FEFFF758FEE8
:100B40009DF80000401CC0B28DF800001E3000B2BD
:100B5000802802DB00208DF80000B5E7FEE700BF2B
:100B600000100140B401224282B0CDF800E0374AC3
:100B7000374B384C03F0F000010937484018007833
:100B800004FA00F10C464BF68030814206D9334816
:100B9000006840F002013148016011E045F6C050A4
:100BA000844206D92D48006840F001012B480160BD
:100BB00006E02A4801686FF00700014027480160FD
:100BC000FFF7CEFD26480360264802EA00012648CA
:100BD000016002F0010040B119462348006800F0AE
:100BE0000200002800D1F8E700E0194602F4803046
:100BF00048B11D48006800F4003000B9F9E70192DF
:100C00000A46019902E001911146019A01F08070B3
:100C100070B11548006840F08071134801601146BA
:100C20001148006800F0007000B9F9E70A46FFE7D4
:100C30000B48006800F00C01900000F00C008142AD
:100C400000D0F5E7DDF800E002B070478100000059
:100C500000000000401F00006C0C0000002002405B
:100C600004100240FFFF0F000010024000000000CF
:100C700001020304010203040607080900B5DFF8B6
:100C800010B0DFF810A0FFF747FE00BD704700BFAF
:100C90000000002008040020FFFFFFFFFFFFFFFF10
:00000001FF
